{
  "abi": [
    {
      "inputs": [
        {
          "internalType": "address",
          "name": "_factory",
          "type": "address"
        },
        {
          "internalType": "address",
          "name": "_WETH",
          "type": "address"
        }
      ],
      "stateMutability": "nonpayable",
      "type": "constructor"
    },
    {
      "inputs": [],
      "name": "WETH",
      "outputs": [
        {
          "internalType": "address",
          "name": "",
          "type": "address"
        }
      ],
      "stateMutability": "view",
      "type": "function"
    },
    {
      "inputs": [
        {
          "internalType": "address",
          "name": "tokenA",
          "type": "address"
        },
        {
          "internalType": "address",
          "name": "tokenB",
          "type": "address"
        },
        {
          "internalType": "uint256",
          "name": "amountADesired",
          "type": "uint256"
        },
        {
          "internalType": "uint256",
          "name": "amountBDesired",
          "type": "uint256"
        },
        {
          "internalType": "uint256",
          "name": "amountAMin",
          "type": "uint256"
        },
        {
          "internalType": "uint256",
          "name": "amountBMin",
          "type": "uint256"
        },
        {
          "internalType": "address",
          "name": "to",
          "type": "address"
        },
        {
          "internalType": "uint256",
          "name": "deadline",
          "type": "uint256"
        }
      ],
      "name": "addLiquidity",
      "outputs": [
        {
          "internalType": "uint256",
          "name": "amountA",
          "type": "uint256"
        },
        {
          "internalType": "uint256",
          "name": "amountB",
          "type": "uint256"
        },
        {
          "internalType": "uint256",
          "name": "liquidity",
          "type": "uint256"
        }
      ],
      "stateMutability": "nonpayable",
      "type": "function"
    },
    {
      "inputs": [
        {
          "internalType": "address",
          "name": "token",
          "type": "address"
        },
        {
          "internalType": "uint256",
          "name": "amountTokenDesired",
          "type": "uint256"
        },
        {
          "internalType": "uint256",
          "name": "amountTokenMin",
          "type": "uint256"
        },
        {
          "internalType": "uint256",
          "name": "amountETHMin",
          "type": "uint256"
        },
        {
          "internalType": "address",
          "name": "to",
          "type": "address"
        },
        {
          "internalType": "uint256",
          "name": "deadline",
          "type": "uint256"
        }
      ],
      "name": "addLiquidityETH",
      "outputs": [
        {
          "internalType": "uint256",
          "name": "amountToken",
          "type": "uint256"
        },
        {
          "internalType": "uint256",
          "name": "amountETH",
          "type": "uint256"
        },
        {
          "internalType": "uint256",
          "name": "liquidity",
          "type": "uint256"
        }
      ],
      "stateMutability": "payable",
      "type": "function"
    },
    {
      "inputs": [],
      "name": "factory",
      "outputs": [
        {
          "internalType": "address",
          "name": "",
          "type": "address"
        }
      ],
      "stateMutability": "view",
      "type": "function"
    },
    {
      "inputs": [
        {
          "internalType": "uint256",
          "name": "amountOut",
          "type": "uint256"
        },
        {
          "internalType": "uint256",
          "name": "reserveIn",
          "type": "uint256"
        },
        {
          "internalType": "uint256",
          "name": "reserveOut",
          "type": "uint256"
        },
        {
          "internalType": "uint256",
          "name": "swapFee",
          "type": "uint256"
        }
      ],
      "name": "getAmountIn",
      "outputs": [
        {
          "internalType": "uint256",
          "name": "amountIn",
          "type": "uint256"
        }
      ],
      "stateMutability": "pure",
      "type": "function"
    },
    {
      "inputs": [
        {
          "internalType": "uint256",
          "name": "amountIn",
          "type": "uint256"
        },
        {
          "internalType": "uint256",
          "name": "reserveIn",
          "type": "uint256"
        },
        {
          "internalType": "uint256",
          "name": "reserveOut",
          "type": "uint256"
        },
        {
          "internalType": "uint256",
          "name": "swapFee",
          "type": "uint256"
        }
      ],
      "name": "getAmountOut",
      "outputs": [
        {
          "internalType": "uint256",
          "name": "amountOut",
          "type": "uint256"
        }
      ],
      "stateMutability": "pure",
      "type": "function"
    },
    {
      "inputs": [
        {
          "internalType": "uint256",
          "name": "amountOut",
          "type": "uint256"
        },
        {
          "internalType": "address[]",
          "name": "path",
          "type": "address[]"
        }
      ],
      "name": "getAmountsIn",
      "outputs": [
        {
          "internalType": "uint256[]",
          "name": "amounts",
          "type": "uint256[]"
        }
      ],
      "stateMutability": "view",
      "type": "function"
    },
    {
      "inputs": [
        {
          "internalType": "uint256",
          "name": "amountIn",
          "type": "uint256"
        },
        {
          "internalType": "address[]",
          "name": "path",
          "type": "address[]"
        }
      ],
      "name": "getAmountsOut",
      "outputs": [
        {
          "internalType": "uint256[]",
          "name": "amounts",
          "type": "uint256[]"
        }
      ],
      "stateMutability": "view",
      "type": "function"
    },
    {
      "inputs": [
        {
          "internalType": "uint256",
          "name": "amountA",
          "type": "uint256"
        },
        {
          "internalType": "uint256",
          "name": "reserveA",
          "type": "uint256"
        },
        {
          "internalType": "uint256",
          "name": "reserveB",
          "type": "uint256"
        }
      ],
      "name": "quote",
      "outputs": [
        {
          "internalType": "uint256",
          "name": "amountB",
          "type": "uint256"
        }
      ],
      "stateMutability": "pure",
      "type": "function"
    },
    {
      "inputs": [
        {
          "internalType": "address",
          "name": "tokenA",
          "type": "address"
        },
        {
          "internalType": "address",
          "name": "tokenB",
          "type": "address"
        },
        {
          "internalType": "uint256",
          "name": "liquidity",
          "type": "uint256"
        },
        {
          "internalType": "uint256",
          "name": "amountAMin",
          "type": "uint256"
        },
        {
          "internalType": "uint256",
          "name": "amountBMin",
          "type": "uint256"
        },
        {
          "internalType": "address",
          "name": "to",
          "type": "address"
        },
        {
          "internalType": "uint256",
          "name": "deadline",
          "type": "uint256"
        }
      ],
      "name": "removeLiquidity",
      "outputs": [
        {
          "internalType": "uint256",
          "name": "amountA",
          "type": "uint256"
        },
        {
          "internalType": "uint256",
          "name": "amountB",
          "type": "uint256"
        }
      ],
      "stateMutability": "nonpayable",
      "type": "function"
    },
    {
      "inputs": [
        {
          "internalType": "address",
          "name": "token",
          "type": "address"
        },
        {
          "internalType": "uint256",
          "name": "liquidity",
          "type": "uint256"
        },
        {
          "internalType": "uint256",
          "name": "amountTokenMin",
          "type": "uint256"
        },
        {
          "internalType": "uint256",
          "name": "amountETHMin",
          "type": "uint256"
        },
        {
          "internalType": "address",
          "name": "to",
          "type": "address"
        },
        {
          "internalType": "uint256",
          "name": "deadline",
          "type": "uint256"
        }
      ],
      "name": "removeLiquidityETH",
      "outputs": [
        {
          "internalType": "uint256",
          "name": "amountToken",
          "type": "uint256"
        },
        {
          "internalType": "uint256",
          "name": "amountETH",
          "type": "uint256"
        }
      ],
      "stateMutability": "nonpayable",
      "type": "function"
    },
    {
      "inputs": [
        {
          "internalType": "address",
          "name": "token",
          "type": "address"
        },
        {
          "internalType": "uint256",
          "name": "liquidity",
          "type": "uint256"
        },
        {
          "internalType": "uint256",
          "name": "amountTokenMin",
          "type": "uint256"
        },
        {
          "internalType": "uint256",
          "name": "amountETHMin",
          "type": "uint256"
        },
        {
          "internalType": "address",
          "name": "to",
          "type": "address"
        },
        {
          "internalType": "uint256",
          "name": "deadline",
          "type": "uint256"
        },
        {
          "internalType": "bool",
          "name": "approveMax",
          "type": "bool"
        },
        {
          "internalType": "uint8",
          "name": "v",
          "type": "uint8"
        },
        {
          "internalType": "bytes32",
          "name": "r",
          "type": "bytes32"
        },
        {
          "internalType": "bytes32",
          "name": "s",
          "type": "bytes32"
        }
      ],
      "name": "removeLiquidityETHWithPermit",
      "outputs": [
        {
          "internalType": "uint256",
          "name": "amountToken",
          "type": "uint256"
        },
        {
          "internalType": "uint256",
          "name": "amountETH",
          "type": "uint256"
        }
      ],
      "stateMutability": "nonpayable",
      "type": "function"
    },
    {
      "inputs": [
        {
          "internalType": "address",
          "name": "tokenA",
          "type": "address"
        },
        {
          "internalType": "address",
          "name": "tokenB",
          "type": "address"
        },
        {
          "internalType": "uint256",
          "name": "liquidity",
          "type": "uint256"
        },
        {
          "internalType": "uint256",
          "name": "amountAMin",
          "type": "uint256"
        },
        {
          "internalType": "uint256",
          "name": "amountBMin",
          "type": "uint256"
        },
        {
          "internalType": "address",
          "name": "to",
          "type": "address"
        },
        {
          "internalType": "uint256",
          "name": "deadline",
          "type": "uint256"
        },
        {
          "internalType": "bool",
          "name": "approveMax",
          "type": "bool"
        },
        {
          "internalType": "uint8",
          "name": "v",
          "type": "uint8"
        },
        {
          "internalType": "bytes32",
          "name": "r",
          "type": "bytes32"
        },
        {
          "internalType": "bytes32",
          "name": "s",
          "type": "bytes32"
        }
      ],
      "name": "removeLiquidityWithPermit",
      "outputs": [
        {
          "internalType": "uint256",
          "name": "amountA",
          "type": "uint256"
        },
        {
          "internalType": "uint256",
          "name": "amountB",
          "type": "uint256"
        }
      ],
      "stateMutability": "nonpayable",
      "type": "function"
    },
    {
      "inputs": [
        {
          "internalType": "uint256",
          "name": "amountOut",
          "type": "uint256"
        },
        {
          "internalType": "address[]",
          "name": "path",
          "type": "address[]"
        },
        {
          "internalType": "address",
          "name": "to",
          "type": "address"
        },
        {
          "internalType": "uint256",
          "name": "deadline",
          "type": "uint256"
        }
      ],
      "name": "swapETHForExactTokens",
      "outputs": [
        {
          "internalType": "uint256[]",
          "name": "amounts",
          "type": "uint256[]"
        }
      ],
      "stateMutability": "payable",
      "type": "function"
    },
    {
      "inputs": [
        {
          "internalType": "uint256",
          "name": "amountOutMin",
          "type": "uint256"
        },
        {
          "internalType": "address[]",
          "name": "path",
          "type": "address[]"
        },
        {
          "internalType": "address",
          "name": "to",
          "type": "address"
        },
        {
          "internalType": "uint256",
          "name": "deadline",
          "type": "uint256"
        }
      ],
      "name": "swapExactETHForTokens",
      "outputs": [
        {
          "internalType": "uint256[]",
          "name": "amounts",
          "type": "uint256[]"
        }
      ],
      "stateMutability": "payable",
      "type": "function"
    },
    {
      "inputs": [
        {
          "internalType": "uint256",
          "name": "amountIn",
          "type": "uint256"
        },
        {
          "internalType": "uint256",
          "name": "amountOutMin",
          "type": "uint256"
        },
        {
          "internalType": "address[]",
          "name": "path",
          "type": "address[]"
        },
        {
          "internalType": "address",
          "name": "to",
          "type": "address"
        },
        {
          "internalType": "uint256",
          "name": "deadline",
          "type": "uint256"
        }
      ],
      "name": "swapExactTokensForETH",
      "outputs": [
        {
          "internalType": "uint256[]",
          "name": "amounts",
          "type": "uint256[]"
        }
      ],
      "stateMutability": "nonpayable",
      "type": "function"
    },
    {
      "inputs": [
        {
          "internalType": "uint256",
          "name": "amountIn",
          "type": "uint256"
        },
        {
          "internalType": "uint256",
          "name": "amountOutMin",
          "type": "uint256"
        },
        {
          "internalType": "address[]",
          "name": "path",
          "type": "address[]"
        },
        {
          "internalType": "address",
          "name": "to",
          "type": "address"
        },
        {
          "internalType": "uint256",
          "name": "deadline",
          "type": "uint256"
        }
      ],
      "name": "swapExactTokensForTokens",
      "outputs": [
        {
          "internalType": "uint256[]",
          "name": "amounts",
          "type": "uint256[]"
        }
      ],
      "stateMutability": "nonpayable",
      "type": "function"
    },
    {
      "inputs": [
        {
          "internalType": "uint256",
          "name": "amountOut",
          "type": "uint256"
        },
        {
          "internalType": "uint256",
          "name": "amountInMax",
          "type": "uint256"
        },
        {
          "internalType": "address[]",
          "name": "path",
          "type": "address[]"
        },
        {
          "internalType": "address",
          "name": "to",
          "type": "address"
        },
        {
          "internalType": "uint256",
          "name": "deadline",
          "type": "uint256"
        }
      ],
      "name": "swapTokensForExactETH",
      "outputs": [
        {
          "internalType": "uint256[]",
          "name": "amounts",
          "type": "uint256[]"
        }
      ],
      "stateMutability": "nonpayable",
      "type": "function"
    },
    {
      "inputs": [
        {
          "internalType": "uint256",
          "name": "amountOut",
          "type": "uint256"
        },
        {
          "internalType": "uint256",
          "name": "amountInMax",
          "type": "uint256"
        },
        {
          "internalType": "address[]",
          "name": "path",
          "type": "address[]"
        },
        {
          "internalType": "address",
          "name": "to",
          "type": "address"
        },
        {
          "internalType": "uint256",
          "name": "deadline",
          "type": "uint256"
        }
      ],
      "name": "swapTokensForExactTokens",
      "outputs": [
        {
          "internalType": "uint256[]",
          "name": "amounts",
          "type": "uint256[]"
        }
      ],
      "stateMutability": "nonpayable",
      "type": "function"
    },
    {
      "stateMutability": "payable",
      "type": "receive"
    }
  ],
  "evm": {
    "bytecode": {
      "linkReferences": {},
      "object": "60c060405234801561001057600080fd5b50604051620041ee380380620041ee8339818101604052604081101561003557600080fd5b5080516020909101516001600160601b0319606092831b8116608052911b1660a05260805160601c60a05160601c6140af6200013f600039806101655280610b295280610b645280610c8c5280610f4f52806113a952806115ee52806117a152806118365280611aef5280611ead52806121cd5280612223528061225752806122d852806124c65280612676528061270b525080610d7e5280610e7c5280611022528061105b5280611206528061149b52806116d452806118755280611a255280611ba05280611e325280611e5b5280611e8b5280612068528061220152806125ac528061274a52806130ad52806130f0528061376b5280613858528061393252506140af6000f3fe6080604052600436106101485760003560e01c80638803dbee116100c0578063d06ca61f11610074578063e8e3370011610059578063e8e337001461093d578063f305d719146109ca578063fb3bdb4114610a1d5761018e565b8063d06ca61f14610806578063ded9382a146108bd5761018e565b8063ad615dec116100a5578063ad615dec14610751578063baa2abde14610787578063c45a0155146107f15761018e565b80638803dbee1461066e578063ad5c4648146107135761018e565b806338ed17391161011757806352707d8c116100fc57806352707d8c1461058d578063571fd0121461058d5780637ff36ab5146105db5761018e565b806338ed1739146104435780634a25d94a146104e85761018e565b806302751cec1461019357806318cbafe51461020c5780631f00ca74146103015780632195995c146103b85761018e565b3661018e573373ffffffffffffffffffffffffffffffffffffffff7f0000000000000000000000000000000000000000000000000000000000000000161461018c57fe5b005b600080fd5b34801561019f57600080fd5b506101f3600480360360c08110156101b657600080fd5b5073ffffffffffffffffffffffffffffffffffffffff81358116916020810135916040820135916060810135916080820135169060a00135610ab0565b6040805192835260208301919091528051918290030190f35b34801561021857600080fd5b506102b1600480360360a081101561022f57600080fd5b81359160208101359181019060608101604082013564010000000081111561025657600080fd5b82018360208201111561026857600080fd5b8035906020019184602083028401116401000000008311171561028a57600080fd5b919350915073ffffffffffffffffffffffffffffffffffffffff8135169060200135610c03565b60408051602080825283518183015283519192839290830191858101910280838360005b838110156102ed5781810151838201526020016102d5565b505050509050019250505060405180910390f35b34801561030d57600080fd5b506102b16004803603604081101561032457600080fd5b8135919081019060408101602082013564010000000081111561034657600080fd5b82018360208201111561035857600080fd5b8035906020019184602083028401116401000000008311171561037a57600080fd5b91908080602002602001604051908101604052809392919081815260200183836020028082843760009201919091525092955061101b945050505050565b3480156103c457600080fd5b506101f360048036036101608110156103dc57600080fd5b5073ffffffffffffffffffffffffffffffffffffffff8135811691602081013582169160408201359160608101359160808201359160a08101359091169060c08101359060e081013515159060ff6101008201351690610120810135906101400135611051565b34801561044f57600080fd5b506102b1600480360360a081101561046657600080fd5b81359160208101359181019060608101604082013564010000000081111561048d57600080fd5b82018360208201111561049f57600080fd5b803590602001918460208302840111640100000000831117156104c157600080fd5b919350915073ffffffffffffffffffffffffffffffffffffffff813516906020013561118f565b3480156104f457600080fd5b506102b1600480360360a081101561050b57600080fd5b81359160208101359181019060608101604082013564010000000081111561053257600080fd5b82018360208201111561054457600080fd5b8035906020019184602083028401116401000000008311171561056657600080fd5b919350915073ffffffffffffffffffffffffffffffffffffffff8135169060200135611320565b34801561059957600080fd5b506105c9600480360360808110156105b057600080fd5b5080359060208101359060408101359060600135611563565b60408051918252519081900360200190f35b6102b1600480360360808110156105f157600080fd5b8135919081019060408101602082013564010000000081111561061357600080fd5b82018360208201111561062557600080fd5b8035906020019184602083028401116401000000008311171561064757600080fd5b919350915073ffffffffffffffffffffffffffffffffffffffff813516906020013561157a565b34801561067a57600080fd5b506102b1600480360360a081101561069157600080fd5b8135916020810135918101906060810160408201356401000000008111156106b857600080fd5b8201836020820111156106ca57600080fd5b803590602001918460208302840111640100000000831117156106ec57600080fd5b919350915073ffffffffffffffffffffffffffffffffffffffff81351690602001356119ae565b34801561071f57600080fd5b50610728611aed565b6040805173ffffffffffffffffffffffffffffffffffffffff9092168252519081900360200190f35b34801561075d57600080fd5b506105c96004803603606081101561077457600080fd5b5080359060208101359060400135611b11565b34801561079357600080fd5b506101f3600480360360e08110156107aa57600080fd5b5073ffffffffffffffffffffffffffffffffffffffff8135811691602081013582169160408201359160608101359160808201359160a08101359091169060c00135611b26565b3480156107fd57600080fd5b50610728611e30565b34801561081257600080fd5b506102b16004803603604081101561082957600080fd5b8135919081019060408101602082013564010000000081111561084b57600080fd5b82018360208201111561085d57600080fd5b8035906020019184602083028401116401000000008311171561087f57600080fd5b919080806020026020016040519081016040528093929190818152602001838360200280828437600092019190915250929550611e54945050505050565b3480156108c957600080fd5b506101f360048036036101408110156108e157600080fd5b5073ffffffffffffffffffffffffffffffffffffffff81358116916020810135916040820135916060810135916080820135169060a08101359060c081013515159060ff60e08201351690610100810135906101200135611e81565b34801561094957600080fd5b506109ac600480360361010081101561096157600080fd5b5073ffffffffffffffffffffffffffffffffffffffff8135811691602081013582169160408201359160608101359160808201359160a08101359160c0820135169060e00135611fd9565b60408051938452602084019290925282820152519081900360600190f35b6109ac600480360360c08110156109e057600080fd5b5073ffffffffffffffffffffffffffffffffffffffff81358116916020810135916040820135916060810135916080820135169060a00135612152565b6102b160048036036080811015610a3357600080fd5b81359190810190604081016020820135640100000000811115610a5557600080fd5b820183602082011115610a6757600080fd5b80359060200191846020830284011164010000000083111715610a8957600080fd5b919350915073ffffffffffffffffffffffffffffffffffffffff8135169060200135612452565b6000808242811015610b2357604080517f08c379a000000000000000000000000000000000000000000000000000000000815260206004820152601b60248201527f436166655377617056325632526f757465723a20455850495245440000000000604482015290519081900360640190fd5b610b52897f00000000000000000000000000000000000000000000000000000000000000008a8a8a308a611b26565b9093509150610b6289868561288b565b7f000000000000000000000000000000000000000000000000000000000000000073ffffffffffffffffffffffffffffffffffffffff16632e1a7d4d836040518263ffffffff1660e01b815260040180828152602001915050600060405180830381600087803b158015610bd557600080fd5b505af1158015610be9573d6000803e3d6000fd5b50505050610bf78583612a52565b50965096945050505050565b60608142811015610c7557604080517f08c379a000000000000000000000000000000000000000000000000000000000815260206004820152601b60248201527f436166655377617056325632526f757465723a20455850495245440000000000604482015290519081900360640190fd5b73ffffffffffffffffffffffffffffffffffffffff7f00000000000000000000000000000000000000000000000000000000000000001686867fffffffffffffffffffffffffffffffffffffffffffffffffffffffffffffffff8101818110610cda57fe5b9050602002013573ffffffffffffffffffffffffffffffffffffffff1673ffffffffffffffffffffffffffffffffffffffff1614610d7957604080517f08c379a000000000000000000000000000000000000000000000000000000000815260206004820181905260248201527f436166655377617056325632526f757465723a20494e56414c49445f50415448604482015290519081900360640190fd5b610dd77f000000000000000000000000000000000000000000000000000000000000000089888880806020026020016040519081016040528093929190818152602001838360200280828437600092019190915250612b8f92505050565b91508682600184510381518110610dea57fe5b60200260200101511015610e49576040517f08c379a000000000000000000000000000000000000000000000000000000000815260040180806020018281038252602e815260200180613eec602e913960400191505060405180910390fd5b610f0e86866000818110610e5957fe5b9050602002013573ffffffffffffffffffffffffffffffffffffffff1633610ef47f00000000000000000000000000000000000000000000000000000000000000008a8a6000818110610ea857fe5b9050602002013573ffffffffffffffffffffffffffffffffffffffff168b8b6001818110610ed257fe5b9050602002013573ffffffffffffffffffffffffffffffffffffffff16612d29565b85600081518110610f0157fe5b6020026020010151612e14565b610f4d82878780806020026020016040519081016040528093929190818152602001838360200280828437600092019190915250309250612fe4915050565b7f000000000000000000000000000000000000000000000000000000000000000073ffffffffffffffffffffffffffffffffffffffff16632e1a7d4d83600185510381518110610f9957fe5b60200260200101516040518263ffffffff1660e01b815260040180828152602001915050600060405180830381600087803b158015610fd757600080fd5b505af1158015610feb573d6000803e3d6000fd5b50505050611010848360018551038151811061100357fe5b6020026020010151612a52565b509695505050505050565b60606110487f00000000000000000000000000000000000000000000000000000000000000008484613255565b90505b92915050565b60008060006110817f00000000000000000000000000000000000000000000000000000000000000008f8f612d29565b9050600087611090578c6110b2565b7fffffffffffffffffffffffffffffffffffffffffffffffffffffffffffffffff5b604080517fd505accf00000000000000000000000000000000000000000000000000000000815233600482015230602482015260448101839052606481018c905260ff8a16608482015260a4810189905260c48101889052905191925073ffffffffffffffffffffffffffffffffffffffff84169163d505accf9160e48082019260009290919082900301818387803b15801561114e57600080fd5b505af1158015611162573d6000803e3d6000fd5b505050506111758f8f8f8f8f8f8f611b26565b809450819550505050509b509b9950505050505050505050565b6060814281101561120157604080517f08c379a000000000000000000000000000000000000000000000000000000000815260206004820152601b60248201527f436166655377617056325632526f757465723a20455850495245440000000000604482015290519081900360640190fd5b61125f7f000000000000000000000000000000000000000000000000000000000000000089888880806020026020016040519081016040528093929190818152602001838360200280828437600092019190915250612b8f92505050565b9150868260018451038151811061127257fe5b602002602001015110156112d1576040517f08c379a000000000000000000000000000000000000000000000000000000000815260040180806020018281038252602e815260200180613eec602e913960400191505060405180910390fd5b6112e186866000818110610e5957fe5b61101082878780806020026020016040519081016040528093929190818152602001838360200280828437600092019190915250899250612fe4915050565b6060814281101561139257604080517f08c379a000000000000000000000000000000000000000000000000000000000815260206004820152601b60248201527f436166655377617056325632526f757465723a20455850495245440000000000604482015290519081900360640190fd5b73ffffffffffffffffffffffffffffffffffffffff7f00000000000000000000000000000000000000000000000000000000000000001686867fffffffffffffffffffffffffffffffffffffffffffffffffffffffffffffffff81018181106113f757fe5b9050602002013573ffffffffffffffffffffffffffffffffffffffff1673ffffffffffffffffffffffffffffffffffffffff161461149657604080517f08c379a000000000000000000000000000000000000000000000000000000000815260206004820181905260248201527f436166655377617056325632526f757465723a20494e56414c49445f50415448604482015290519081900360640190fd5b6114f47f00000000000000000000000000000000000000000000000000000000000000008988888080602002602001604051908101604052809392919081815260200183836020028082843760009201919091525061325592505050565b9150868260008151811061150457fe5b60200260200101511115610e49576040517f08c379a000000000000000000000000000000000000000000000000000000000815260040180806020018281038252602a815260200180613ec2602a913960400191505060405180910390fd5b60006115718585858561340a565b95945050505050565b606081428110156115ec57604080517f08c379a000000000000000000000000000000000000000000000000000000000815260206004820152601b60248201527f436166655377617056325632526f757465723a20455850495245440000000000604482015290519081900360640190fd5b7f000000000000000000000000000000000000000000000000000000000000000073ffffffffffffffffffffffffffffffffffffffff168686600081811061163057fe5b9050602002013573ffffffffffffffffffffffffffffffffffffffff1673ffffffffffffffffffffffffffffffffffffffff16146116cf57604080517f08c379a000000000000000000000000000000000000000000000000000000000815260206004820181905260248201527f436166655377617056325632526f757465723a20494e56414c49445f50415448604482015290519081900360640190fd5b61172d7f000000000000000000000000000000000000000000000000000000000000000034888880806020026020016040519081016040528093929190818152602001838360200280828437600092019190915250612b8f92505050565b9150868260018451038151811061174057fe5b6020026020010151101561179f576040517f08c379a000000000000000000000000000000000000000000000000000000000815260040180806020018281038252602e815260200180613eec602e913960400191505060405180910390fd5b7f000000000000000000000000000000000000000000000000000000000000000073ffffffffffffffffffffffffffffffffffffffff1663d0e30db0836000815181106117e857fe5b60200260200101516040518263ffffffff1660e01b81526004016000604051808303818588803b15801561181b57600080fd5b505af115801561182f573d6000803e3d6000fd5b50505050507f000000000000000000000000000000000000000000000000000000000000000073ffffffffffffffffffffffffffffffffffffffff1663a9059cbb6118cb7f0000000000000000000000000000000000000000000000000000000000000000898960008181106118a157fe5b9050602002013573ffffffffffffffffffffffffffffffffffffffff168a8a6001818110610ed257fe5b846000815181106118d857fe5b60200260200101516040518363ffffffff1660e01b8152600401808373ffffffffffffffffffffffffffffffffffffffff16815260200182815260200192505050602060405180830381600087803b15801561193357600080fd5b505af1158015611947573d6000803e3d6000fd5b505050506040513d602081101561195d57600080fd5b505161196557fe5b6119a482878780806020026020016040519081016040528093929190818152602001838360200280828437600092019190915250899250612fe4915050565b5095945050505050565b60608142811015611a2057604080517f08c379a000000000000000000000000000000000000000000000000000000000815260206004820152601b60248201527f436166655377617056325632526f757465723a20455850495245440000000000604482015290519081900360640190fd5b611a7e7f00000000000000000000000000000000000000000000000000000000000000008988888080602002602001604051908101604052809392919081815260200183836020028082843760009201919091525061325592505050565b91508682600081518110611a8e57fe5b602002602001015111156112d1576040517f08c379a000000000000000000000000000000000000000000000000000000000815260040180806020018281038252602a815260200180613ec2602a913960400191505060405180910390fd5b7f000000000000000000000000000000000000000000000000000000000000000081565b6000611b1e848484613521565b949350505050565b6000808242811015611b9957604080517f08c379a000000000000000000000000000000000000000000000000000000000815260206004820152601b60248201527f436166655377617056325632526f757465723a20455850495245440000000000604482015290519081900360640190fd5b6000611bc67f00000000000000000000000000000000000000000000000000000000000000008c8c612d29565b604080517f23b872dd00000000000000000000000000000000000000000000000000000000815233600482015273ffffffffffffffffffffffffffffffffffffffff831660248201819052604482018d9052915192935090916323b872dd916064808201926020929091908290030181600087803b158015611c4757600080fd5b505af1158015611c5b573d6000803e3d6000fd5b505050506040513d6020811015611c7157600080fd5b5050604080517f89afcb4400000000000000000000000000000000000000000000000000000000815273ffffffffffffffffffffffffffffffffffffffff888116600483015282516000938493928616926389afcb44926024808301939282900301818787803b158015611ce457600080fd5b505af1158015611cf8573d6000803e3d6000fd5b505050506040513d6040811015611d0e57600080fd5b50805160209091015190925090506000611d288e8e6135fb565b5090508073ffffffffffffffffffffffffffffffffffffffff168e73ffffffffffffffffffffffffffffffffffffffff1614611d65578183611d68565b82825b90975095508a871015611dc6576040517f08c379a0000000000000000000000000000000000000000000000000000000008152600401808060200182810382526029815260200180613fa56029913960400191505060405180910390fd5b89861015611e1f576040517f08c379a0000000000000000000000000000000000000000000000000000000008152600401808060200182810382526029815260200180613e706029913960400191505060405180910390fd5b505050505097509795505050505050565b7f000000000000000000000000000000000000000000000000000000000000000081565b60606110487f00000000000000000000000000000000000000000000000000000000000000008484612b8f565b6000806000611ed17f00000000000000000000000000000000000000000000000000000000000000008e7f0000000000000000000000000000000000000000000000000000000000000000612d29565b9050600087611ee0578c611f02565b7fffffffffffffffffffffffffffffffffffffffffffffffffffffffffffffffff5b604080517fd505accf00000000000000000000000000000000000000000000000000000000815233600482015230602482015260448101839052606481018c905260ff8a16608482015260a4810189905260c48101889052905191925073ffffffffffffffffffffffffffffffffffffffff84169163d505accf9160e48082019260009290919082900301818387803b158015611f9e57600080fd5b505af1158015611fb2573d6000803e3d6000fd5b50505050611fc48e8e8e8e8e8e610ab0565b909f909e509c50505050505050505050505050565b6000806000834281101561204e57604080517f08c379a000000000000000000000000000000000000000000000000000000000815260206004820152601b60248201527f436166655377617056325632526f757465723a20455850495245440000000000604482015290519081900360640190fd5b61205c8c8c8c8c8c8c61374e565b9094509250600061208e7f00000000000000000000000000000000000000000000000000000000000000008e8e612d29565b905061209c8d338388612e14565b6120a88c338387612e14565b8073ffffffffffffffffffffffffffffffffffffffff16636a627842886040518263ffffffff1660e01b8152600401808273ffffffffffffffffffffffffffffffffffffffff168152602001915050602060405180830381600087803b15801561211157600080fd5b505af1158015612125573d6000803e3d6000fd5b505050506040513d602081101561213b57600080fd5b5051949d939c50939a509198505050505050505050565b600080600083428110156121c757604080517f08c379a000000000000000000000000000000000000000000000000000000000815260206004820152601b60248201527f436166655377617056325632526f757465723a20455850495245440000000000604482015290519081900360640190fd5b6121f58a7f00000000000000000000000000000000000000000000000000000000000000008b348c8c61374e565b909450925060006122477f00000000000000000000000000000000000000000000000000000000000000008c7f0000000000000000000000000000000000000000000000000000000000000000612d29565b90506122558b338388612e14565b7f000000000000000000000000000000000000000000000000000000000000000073ffffffffffffffffffffffffffffffffffffffff1663d0e30db0856040518263ffffffff1660e01b81526004016000604051808303818588803b1580156122bd57600080fd5b505af11580156122d1573d6000803e3d6000fd5b50505050507f000000000000000000000000000000000000000000000000000000000000000073ffffffffffffffffffffffffffffffffffffffff1663a9059cbb82866040518363ffffffff1660e01b8152600401808373ffffffffffffffffffffffffffffffffffffffff16815260200182815260200192505050602060405180830381600087803b15801561236757600080fd5b505af115801561237b573d6000803e3d6000fd5b505050506040513d602081101561239157600080fd5b505161239957fe5b8073ffffffffffffffffffffffffffffffffffffffff16636a627842886040518263ffffffff1660e01b8152600401808273ffffffffffffffffffffffffffffffffffffffff168152602001915050602060405180830381600087803b15801561240257600080fd5b505af1158015612416573d6000803e3d6000fd5b505050506040513d602081101561242c57600080fd5b50519250348410156124445761244433853403612a52565b505096509650969350505050565b606081428110156124c457604080517f08c379a000000000000000000000000000000000000000000000000000000000815260206004820152601b60248201527f436166655377617056325632526f757465723a20455850495245440000000000604482015290519081900360640190fd5b7f000000000000000000000000000000000000000000000000000000000000000073ffffffffffffffffffffffffffffffffffffffff168686600081811061250857fe5b9050602002013573ffffffffffffffffffffffffffffffffffffffff1673ffffffffffffffffffffffffffffffffffffffff16146125a757604080517f08c379a000000000000000000000000000000000000000000000000000000000815260206004820181905260248201527f436166655377617056325632526f757465723a20494e56414c49445f50415448604482015290519081900360640190fd5b6126057f00000000000000000000000000000000000000000000000000000000000000008888888080602002602001604051908101604052809392919081815260200183836020028082843760009201919091525061325592505050565b9150348260008151811061261557fe5b60200260200101511115612674576040517f08c379a000000000000000000000000000000000000000000000000000000000815260040180806020018281038252602a815260200180613ec2602a913960400191505060405180910390fd5b7f000000000000000000000000000000000000000000000000000000000000000073ffffffffffffffffffffffffffffffffffffffff1663d0e30db0836000815181106126bd57fe5b60200260200101516040518263ffffffff1660e01b81526004016000604051808303818588803b1580156126f057600080fd5b505af1158015612704573d6000803e3d6000fd5b50505050507f000000000000000000000000000000000000000000000000000000000000000073ffffffffffffffffffffffffffffffffffffffff1663a9059cbb6127767f0000000000000000000000000000000000000000000000000000000000000000898960008181106118a157fe5b8460008151811061278357fe5b60200260200101516040518363ffffffff1660e01b8152600401808373ffffffffffffffffffffffffffffffffffffffff16815260200182815260200192505050602060405180830381600087803b1580156127de57600080fd5b505af11580156127f2573d6000803e3d6000fd5b505050506040513d602081101561280857600080fd5b505161281057fe5b61284f82878780806020026020016040519081016040528093929190818152602001838360200280828437600092019190915250899250612fe4915050565b8160008151811061285c57fe5b60200260200101513411156119a4576119a4338360008151811061287c57fe5b60200260200101513403612a52565b6040805173ffffffffffffffffffffffffffffffffffffffff8481166024830152604480830185905283518084039091018152606490920183526020820180517bffffffffffffffffffffffffffffffffffffffffffffffffffffffff167fa9059cbb00000000000000000000000000000000000000000000000000000000178152925182516000946060949389169392918291908083835b6020831061296157805182527fffffffffffffffffffffffffffffffffffffffffffffffffffffffffffffffe09092019160209182019101612924565b6001836020036101000a0380198251168184511680821785525050505050509050019150506000604051808303816000865af19150503d80600081146129c3576040519150601f19603f3d011682016040523d82523d6000602084013e6129c8565b606091505b50915091508180156129f65750805115806129f657508080602001905160208110156129f357600080fd5b50515b612a4b576040517f08c379a000000000000000000000000000000000000000000000000000000000815260040180806020018281038252602d815260200180614021602d913960400191505060405180910390fd5b5050505050565b6040805160008082526020820190925273ffffffffffffffffffffffffffffffffffffffff84169083906040518082805190602001908083835b60208310612ac957805182527fffffffffffffffffffffffffffffffffffffffffffffffffffffffffffffffe09092019160209182019101612a8c565b6001836020036101000a03801982511681845116808217855250505050505090500191505060006040518083038185875af1925050503d8060008114612b2b576040519150601f19603f3d011682016040523d82523d6000602084013e612b30565b606091505b5050905080612b8a576040517f08c379a0000000000000000000000000000000000000000000000000000000008152600401808060200182810382526034815260200180613f4b6034913960400191505060405180910390fd5b505050565b6060600282511015612c0257604080517f08c379a000000000000000000000000000000000000000000000000000000000815260206004820152601f60248201527f436166655377617056324c6962726172793a20494e56414c49445f5041544800604482015290519081900360640190fd5b815167ffffffffffffffff81118015612c1a57600080fd5b50604051908082528060200260200182016040528015612c44578160200160208202803683370190505b5090508281600081518110612c5557fe5b60200260200101818152505060005b6001835103811015612d2157600080612ca787868581518110612c8357fe5b6020026020010151878660010181518110612c9a57fe5b6020026020010151613a7b565b91509150612cfd848481518110612cba57fe5b60200260200101518383612cf88b8a8981518110612cd457fe5b60200260200101518b8a60010181518110612ceb57fe5b6020026020010151613b63565b61340a565b848460010181518110612d0c57fe5b60209081029190910101525050600101612c64565b509392505050565b6000806000612d3885856135fb565b604080517fffffffffffffffffffffffffffffffffffffffff000000000000000000000000606094851b811660208084019190915293851b81166034830152825160288184030181526048830184528051908501207fff0000000000000000000000000000000000000000000000000000000000000060688401529a90941b9093166069840152607d8301989098527fda11640d332a21ce5325b845aeb1a6882fab06577a92feaade1b60dd77caedf1609d808401919091528851808403909101815260bd909201909752805196019590952095945050505050565b6040805173ffffffffffffffffffffffffffffffffffffffff85811660248301528481166044830152606480830185905283518084039091018152608490920183526020820180517bffffffffffffffffffffffffffffffffffffffffffffffffffffffff167f23b872dd0000000000000000000000000000000000000000000000000000000017815292518251600094606094938a169392918291908083835b60208310612ef257805182527fffffffffffffffffffffffffffffffffffffffffffffffffffffffffffffffe09092019160209182019101612eb5565b6001836020036101000a0380198251168184511680821785525050505050509050019150506000604051808303816000865af19150503d8060008114612f54576040519150601f19603f3d011682016040523d82523d6000602084013e612f59565b606091505b5091509150818015612f87575080511580612f875750808060200190516020811015612f8457600080fd5b50515b612fdc576040517f08c379a0000000000000000000000000000000000000000000000000000000008152600401808060200182810382526031815260200180613f1a6031913960400191505060405180910390fd5b505050505050565b60005b600183510381101561324f5760008084838151811061300257fe5b602002602001015185846001018151811061301957fe5b602002602001015191509150600061303183836135fb565b509050600087856001018151811061304557fe5b602002602001015190506000808373ffffffffffffffffffffffffffffffffffffffff168673ffffffffffffffffffffffffffffffffffffffff161461308d57826000613091565b6000835b91509150600060028a510388106130a857886130e9565b6130e97f0000000000000000000000000000000000000000000000000000000000000000878c8b600201815181106130dc57fe5b6020026020010151612d29565b90506131167f00000000000000000000000000000000000000000000000000000000000000008888612d29565b73ffffffffffffffffffffffffffffffffffffffff1663022c0d9f84848460006040519080825280601f01601f191660200182016040528015613160576020820181803683370190505b506040518563ffffffff1660e01b8152600401808581526020018481526020018373ffffffffffffffffffffffffffffffffffffffff16815260200180602001828103825283818151815260200191508051906020019080838360005b838110156131d55781810151838201526020016131bd565b50505050905090810190601f1680156132025780820380516001836020036101000a031916815260200191505b5095505050505050600060405180830381600087803b15801561322457600080fd5b505af1158015613238573d6000803e3d6000fd5b505060019099019850612fe7975050505050505050565b50505050565b60606002825110156132c857604080517f08c379a000000000000000000000000000000000000000000000000000000000815260206004820152601f60248201527f436166655377617056324c6962726172793a20494e56414c49445f5041544800604482015290519081900360640190fd5b815167ffffffffffffffff811180156132e057600080fd5b5060405190808252806020026020018201604052801561330a578160200160208202803683370190505b509050828160018351038151811061331e57fe5b602090810291909101015281517fffffffffffffffffffffffffffffffffffffffffffffffffffffffffffffffff015b8015612d215760008061337e8786600186038151811061336a57fe5b6020026020010151878681518110612c9a57fe5b915091506133c784848151811061339157fe5b602002602001015183836133c28b8a60018a03815181106133ae57fe5b60200260200101518b8a81518110612ceb57fe5b613bef565b8460018503815181106133d657fe5b602090810291909101015250507fffffffffffffffffffffffffffffffffffffffffffffffffffffffffffffffff0161334e565b6000808511613464576040517f08c379a000000000000000000000000000000000000000000000000000000000815260040180806020018281038252602c81526020018061404e602c913960400191505060405180910390fd5b6000841180156134745750600083115b6134c9576040517f08c379a0000000000000000000000000000000000000000000000000000000008152600401808060200182810382526029815260200180613e996029913960400191505060405180910390fd5b60006134e16134da6103e885613d05565b8790613d77565b905060006134ef8286613d77565b9050600061350983613503896103e8613d77565b90613dfd565b905080828161351457fe5b0498975050505050505050565b600080841161357b576040517f08c379a0000000000000000000000000000000000000000000000000000000008152600401808060200182810382526026815260200180613fce6026913960400191505060405180910390fd5b60008311801561358b5750600082115b6135e0576040517f08c379a0000000000000000000000000000000000000000000000000000000008152600401808060200182810382526029815260200180613e996029913960400191505060405180910390fd5b826135eb8584613d77565b816135f257fe5b04949350505050565b6000808273ffffffffffffffffffffffffffffffffffffffff168473ffffffffffffffffffffffffffffffffffffffff161415613683576040517f08c379a0000000000000000000000000000000000000000000000000000000008152600401808060200182810382526026815260200180613f7f6026913960400191505060405180910390fd5b8273ffffffffffffffffffffffffffffffffffffffff168473ffffffffffffffffffffffffffffffffffffffff16106136bd5782846136c0565b83835b909250905073ffffffffffffffffffffffffffffffffffffffff821661374757604080517f08c379a000000000000000000000000000000000000000000000000000000000815260206004820152601f60248201527f436166655377617056324c6962726172793a205a45524f5f4144445245535300604482015290519081900360640190fd5b9250929050565b600080600073ffffffffffffffffffffffffffffffffffffffff167f000000000000000000000000000000000000000000000000000000000000000073ffffffffffffffffffffffffffffffffffffffff1663e6a439058a8a6040518363ffffffff1660e01b8152600401808373ffffffffffffffffffffffffffffffffffffffff1681526020018273ffffffffffffffffffffffffffffffffffffffff1681526020019250505060206040518083038186803b15801561380e57600080fd5b505afa158015613822573d6000803e3d6000fd5b505050506040513d602081101561383857600080fd5b505173ffffffffffffffffffffffffffffffffffffffff16141561392a577f000000000000000000000000000000000000000000000000000000000000000073ffffffffffffffffffffffffffffffffffffffff1663c9c6539689896040518363ffffffff1660e01b8152600401808373ffffffffffffffffffffffffffffffffffffffff1681526020018273ffffffffffffffffffffffffffffffffffffffff16815260200192505050602060405180830381600087803b1580156138fd57600080fd5b505af1158015613911573d6000803e3d6000fd5b505050506040513d602081101561392757600080fd5b50505b6000806139587f00000000000000000000000000000000000000000000000000000000000000008b8b613a7b565b9150915081600014801561396a575080155b1561397a57879350869250613a6e565b6000613987898484613521565b90508781116139f457858110156139e9576040517f08c379a0000000000000000000000000000000000000000000000000000000008152600401808060200182810382526029815260200180613e706029913960400191505060405180910390fd5b889450925082613a6c565b6000613a01898486613521565b905089811115613a0d57fe5b87811015613a66576040517f08c379a0000000000000000000000000000000000000000000000000000000008152600401808060200182810382526029815260200180613fa56029913960400191505060405180910390fd5b94508793505b505b5050965096945050505050565b6000806000613a8a85856135fb565b509050600080613a9b888888612d29565b73ffffffffffffffffffffffffffffffffffffffff16630902f1ac6040518163ffffffff1660e01b815260040160606040518083038186803b158015613ae057600080fd5b505afa158015613af4573d6000803e3d6000fd5b505050506040513d6060811015613b0a57600080fd5b5080516020909101516dffffffffffffffffffffffffffff918216935016905073ffffffffffffffffffffffffffffffffffffffff87811690841614613b51578082613b54565b81815b90999098509650505050505050565b6000613b70848484612d29565b73ffffffffffffffffffffffffffffffffffffffff166354cf2aeb6040518163ffffffff1660e01b815260040160206040518083038186803b158015613bb557600080fd5b505afa158015613bc9573d6000803e3d6000fd5b505050506040513d6020811015613bdf57600080fd5b505163ffffffff16949350505050565b6000808511613c49576040517f08c379a000000000000000000000000000000000000000000000000000000000815260040180806020018281038252602d815260200180613ff4602d913960400191505060405180910390fd5b600084118015613c595750600083115b613cae576040517f08c379a0000000000000000000000000000000000000000000000000000000008152600401808060200182810382526029815260200180613e996029913960400191505060405180910390fd5b6000613cc66103e8613cc08789613d77565b90613d77565b90506000613ce3613cd96103e886613d05565b613cc0878a613d05565b9050613cfa6001828481613cf357fe5b0490613dfd565b979650505050505050565b8082038281111561104b57604080517f08c379a000000000000000000000000000000000000000000000000000000000815260206004820152601560248201527f64732d6d6174682d7375622d756e646572666c6f770000000000000000000000604482015290519081900360640190fd5b6000811580613d9257505080820282828281613d8f57fe5b04145b61104b57604080517f08c379a000000000000000000000000000000000000000000000000000000000815260206004820152601460248201527f64732d6d6174682d6d756c2d6f766572666c6f77000000000000000000000000604482015290519081900360640190fd5b8082018281101561104b57604080517f08c379a000000000000000000000000000000000000000000000000000000000815260206004820152601460248201527f64732d6d6174682d6164642d6f766572666c6f77000000000000000000000000604482015290519081900360640190fdfe436166655377617056325632526f757465723a20494e53554646494349454e545f425f414d4f554e54436166655377617056324c6962726172793a20494e53554646494349454e545f4c4951554944495459436166655377617056325632526f757465723a204558434553534956455f494e5055545f414d4f554e54436166655377617056325632526f757465723a20494e53554646494349454e545f4f55545055545f414d4f554e545472616e7366657248656c7065723a3a7472616e7366657246726f6d3a207472616e7366657246726f6d206661696c65645472616e7366657248656c7065723a3a736166655472616e736665724554483a20455448207472616e73666572206661696c6564436166655377617056324c6962726172793a204944454e544943414c5f414444524553534553436166655377617056325632526f757465723a20494e53554646494349454e545f415f414d4f554e54436166655377617056324c6962726172793a20494e53554646494349454e545f414d4f554e54436166655377617056324c6962726172793a20494e53554646494349454e545f4f55545055545f414d4f554e545472616e7366657248656c7065723a3a736166655472616e736665723a207472616e73666572206661696c6564436166655377617056324c6962726172793a20494e53554646494349454e545f494e5055545f414d4f554e54a2646970667358221220d6499f8d0a6d5b5df733abd1e2314a67f044a59c4082729f75358501b11b0df164736f6c634300060c0033",
      "opcodes": "PUSH1 0xC0 PUSH1 0x40 MSTORE CALLVALUE DUP1 ISZERO PUSH2 0x10 JUMPI PUSH1 0x0 DUP1 REVERT JUMPDEST POP PUSH1 0x40 MLOAD PUSH3 0x41EE CODESIZE SUB DUP1 PUSH3 0x41EE DUP4 CODECOPY DUP2 DUP2 ADD PUSH1 0x40 MSTORE PUSH1 0x40 DUP2 LT ISZERO PUSH2 0x35 JUMPI PUSH1 0x0 DUP1 REVERT JUMPDEST POP DUP1 MLOAD PUSH1 0x20 SWAP1 SWAP2 ADD MLOAD PUSH1 0x1 PUSH1 0x1 PUSH1 0x60 SHL SUB NOT PUSH1 0x60 SWAP3 DUP4 SHL DUP2 AND PUSH1 0x80 MSTORE SWAP2 SHL AND PUSH1 0xA0 MSTORE PUSH1 0x80 MLOAD PUSH1 0x60 SHR PUSH1 0xA0 MLOAD PUSH1 0x60 SHR PUSH2 0x40AF PUSH3 0x13F PUSH1 0x0 CODECOPY DUP1 PUSH2 0x165 MSTORE DUP1 PUSH2 0xB29 MSTORE DUP1 PUSH2 0xB64 MSTORE DUP1 PUSH2 0xC8C MSTORE DUP1 PUSH2 0xF4F MSTORE DUP1 PUSH2 0x13A9 MSTORE DUP1 PUSH2 0x15EE MSTORE DUP1 PUSH2 0x17A1 MSTORE DUP1 PUSH2 0x1836 MSTORE DUP1 PUSH2 0x1AEF MSTORE DUP1 PUSH2 0x1EAD MSTORE DUP1 PUSH2 0x21CD MSTORE DUP1 PUSH2 0x2223 MSTORE DUP1 PUSH2 0x2257 MSTORE DUP1 PUSH2 0x22D8 MSTORE DUP1 PUSH2 0x24C6 MSTORE DUP1 PUSH2 0x2676 MSTORE DUP1 PUSH2 0x270B MSTORE POP DUP1 PUSH2 0xD7E MSTORE DUP1 PUSH2 0xE7C MSTORE DUP1 PUSH2 0x1022 MSTORE DUP1 PUSH2 0x105B MSTORE DUP1 PUSH2 0x1206 MSTORE DUP1 PUSH2 0x149B MSTORE DUP1 PUSH2 0x16D4 MSTORE DUP1 PUSH2 0x1875 MSTORE DUP1 PUSH2 0x1A25 MSTORE DUP1 PUSH2 0x1BA0 MSTORE DUP1 PUSH2 0x1E32 MSTORE DUP1 PUSH2 0x1E5B MSTORE DUP1 PUSH2 0x1E8B MSTORE DUP1 PUSH2 0x2068 MSTORE DUP1 PUSH2 0x2201 MSTORE DUP1 PUSH2 0x25AC MSTORE DUP1 PUSH2 0x274A MSTORE DUP1 PUSH2 0x30AD MSTORE DUP1 PUSH2 0x30F0 MSTORE DUP1 PUSH2 0x376B MSTORE DUP1 PUSH2 0x3858 MSTORE DUP1 PUSH2 0x3932 MSTORE POP PUSH2 0x40AF PUSH1 0x0 RETURN INVALID PUSH1 0x80 PUSH1 0x40 MSTORE PUSH1 0x4 CALLDATASIZE LT PUSH2 0x148 JUMPI PUSH1 0x0 CALLDATALOAD PUSH1 0xE0 SHR DUP1 PUSH4 0x8803DBEE GT PUSH2 0xC0 JUMPI DUP1 PUSH4 0xD06CA61F GT PUSH2 0x74 JUMPI DUP1 PUSH4 0xE8E33700 GT PUSH2 0x59 JUMPI DUP1 PUSH4 0xE8E33700 EQ PUSH2 0x93D JUMPI DUP1 PUSH4 0xF305D719 EQ PUSH2 0x9CA JUMPI DUP1 PUSH4 0xFB3BDB41 EQ PUSH2 0xA1D JUMPI PUSH2 0x18E JUMP JUMPDEST DUP1 PUSH4 0xD06CA61F EQ PUSH2 0x806 JUMPI DUP1 PUSH4 0xDED9382A EQ PUSH2 0x8BD JUMPI PUSH2 0x18E JUMP JUMPDEST DUP1 PUSH4 0xAD615DEC GT PUSH2 0xA5 JUMPI DUP1 PUSH4 0xAD615DEC EQ PUSH2 0x751 JUMPI DUP1 PUSH4 0xBAA2ABDE EQ PUSH2 0x787 JUMPI DUP1 PUSH4 0xC45A0155 EQ PUSH2 0x7F1 JUMPI PUSH2 0x18E JUMP JUMPDEST DUP1 PUSH4 0x8803DBEE EQ PUSH2 0x66E JUMPI DUP1 PUSH4 0xAD5C4648 EQ PUSH2 0x713 JUMPI PUSH2 0x18E JUMP JUMPDEST DUP1 PUSH4 0x38ED1739 GT PUSH2 0x117 JUMPI DUP1 PUSH4 0x52707D8C GT PUSH2 0xFC JUMPI DUP1 PUSH4 0x52707D8C EQ PUSH2 0x58D JUMPI DUP1 PUSH4 0x571FD012 EQ PUSH2 0x58D JUMPI DUP1 PUSH4 0x7FF36AB5 EQ PUSH2 0x5DB JUMPI PUSH2 0x18E JUMP JUMPDEST DUP1 PUSH4 0x38ED1739 EQ PUSH2 0x443 JUMPI DUP1 PUSH4 0x4A25D94A EQ PUSH2 0x4E8 JUMPI PUSH2 0x18E JUMP JUMPDEST DUP1 PUSH4 0x2751CEC EQ PUSH2 0x193 JUMPI DUP1 PUSH4 0x18CBAFE5 EQ PUSH2 0x20C JUMPI DUP1 PUSH4 0x1F00CA74 EQ PUSH2 0x301 JUMPI DUP1 PUSH4 0x2195995C EQ PUSH2 0x3B8 JUMPI PUSH2 0x18E JUMP JUMPDEST CALLDATASIZE PUSH2 0x18E JUMPI CALLER PUSH20 0xFFFFFFFFFFFFFFFFFFFFFFFFFFFFFFFFFFFFFFFF PUSH32 0x0 AND EQ PUSH2 0x18C JUMPI INVALID JUMPDEST STOP JUMPDEST PUSH1 0x0 DUP1 REVERT JUMPDEST CALLVALUE DUP1 ISZERO PUSH2 0x19F JUMPI PUSH1 0x0 DUP1 REVERT JUMPDEST POP PUSH2 0x1F3 PUSH1 0x4 DUP1 CALLDATASIZE SUB PUSH1 0xC0 DUP2 LT ISZERO PUSH2 0x1B6 JUMPI PUSH1 0x0 DUP1 REVERT JUMPDEST POP PUSH20 0xFFFFFFFFFFFFFFFFFFFFFFFFFFFFFFFFFFFFFFFF DUP2 CALLDATALOAD DUP2 AND SWAP2 PUSH1 0x20 DUP2 ADD CALLDATALOAD SWAP2 PUSH1 0x40 DUP3 ADD CALLDATALOAD SWAP2 PUSH1 0x60 DUP2 ADD CALLDATALOAD SWAP2 PUSH1 0x80 DUP3 ADD CALLDATALOAD AND SWAP1 PUSH1 0xA0 ADD CALLDATALOAD PUSH2 0xAB0 JUMP JUMPDEST PUSH1 0x40 DUP1 MLOAD SWAP3 DUP4 MSTORE PUSH1 0x20 DUP4 ADD SWAP2 SWAP1 SWAP2 MSTORE DUP1 MLOAD SWAP2 DUP3 SWAP1 SUB ADD SWAP1 RETURN JUMPDEST CALLVALUE DUP1 ISZERO PUSH2 0x218 JUMPI PUSH1 0x0 DUP1 REVERT JUMPDEST POP PUSH2 0x2B1 PUSH1 0x4 DUP1 CALLDATASIZE SUB PUSH1 0xA0 DUP2 LT ISZERO PUSH2 0x22F JUMPI PUSH1 0x0 DUP1 REVERT JUMPDEST DUP2 CALLDATALOAD SWAP2 PUSH1 0x20 DUP2 ADD CALLDATALOAD SWAP2 DUP2 ADD SWAP1 PUSH1 0x60 DUP2 ADD PUSH1 0x40 DUP3 ADD CALLDATALOAD PUSH5 0x100000000 DUP2 GT ISZERO PUSH2 0x256 JUMPI PUSH1 0x0 DUP1 REVERT JUMPDEST DUP3 ADD DUP4 PUSH1 0x20 DUP3 ADD GT ISZERO PUSH2 0x268 JUMPI PUSH1 0x0 DUP1 REVERT JUMPDEST DUP1 CALLDATALOAD SWAP1 PUSH1 0x20 ADD SWAP2 DUP5 PUSH1 0x20 DUP4 MUL DUP5 ADD GT PUSH5 0x100000000 DUP4 GT OR ISZERO PUSH2 0x28A JUMPI PUSH1 0x0 DUP1 REVERT JUMPDEST SWAP2 SWAP4 POP SWAP2 POP PUSH20 0xFFFFFFFFFFFFFFFFFFFFFFFFFFFFFFFFFFFFFFFF DUP2 CALLDATALOAD AND SWAP1 PUSH1 0x20 ADD CALLDATALOAD PUSH2 0xC03 JUMP JUMPDEST PUSH1 0x40 DUP1 MLOAD PUSH1 0x20 DUP1 DUP3 MSTORE DUP4 MLOAD DUP2 DUP4 ADD MSTORE DUP4 MLOAD SWAP2 SWAP3 DUP4 SWAP3 SWAP1 DUP4 ADD SWAP2 DUP6 DUP2 ADD SWAP2 MUL DUP1 DUP4 DUP4 PUSH1 0x0 JUMPDEST DUP4 DUP2 LT ISZERO PUSH2 0x2ED JUMPI DUP2 DUP2 ADD MLOAD DUP4 DUP3 ADD MSTORE PUSH1 0x20 ADD PUSH2 0x2D5 JUMP JUMPDEST POP POP POP POP SWAP1 POP ADD SWAP3 POP POP POP PUSH1 0x40 MLOAD DUP1 SWAP2 SUB SWAP1 RETURN JUMPDEST CALLVALUE DUP1 ISZERO PUSH2 0x30D JUMPI PUSH1 0x0 DUP1 REVERT JUMPDEST POP PUSH2 0x2B1 PUSH1 0x4 DUP1 CALLDATASIZE SUB PUSH1 0x40 DUP2 LT ISZERO PUSH2 0x324 JUMPI PUSH1 0x0 DUP1 REVERT JUMPDEST DUP2 CALLDATALOAD SWAP2 SWAP1 DUP2 ADD SWAP1 PUSH1 0x40 DUP2 ADD PUSH1 0x20 DUP3 ADD CALLDATALOAD PUSH5 0x100000000 DUP2 GT ISZERO PUSH2 0x346 JUMPI PUSH1 0x0 DUP1 REVERT JUMPDEST DUP3 ADD DUP4 PUSH1 0x20 DUP3 ADD GT ISZERO PUSH2 0x358 JUMPI PUSH1 0x0 DUP1 REVERT JUMPDEST DUP1 CALLDATALOAD SWAP1 PUSH1 0x20 ADD SWAP2 DUP5 PUSH1 0x20 DUP4 MUL DUP5 ADD GT PUSH5 0x100000000 DUP4 GT OR ISZERO PUSH2 0x37A JUMPI PUSH1 0x0 DUP1 REVERT JUMPDEST SWAP2 SWAP1 DUP1 DUP1 PUSH1 0x20 MUL PUSH1 0x20 ADD PUSH1 0x40 MLOAD SWAP1 DUP2 ADD PUSH1 0x40 MSTORE DUP1 SWAP4 SWAP3 SWAP2 SWAP1 DUP2 DUP2 MSTORE PUSH1 0x20 ADD DUP4 DUP4 PUSH1 0x20 MUL DUP1 DUP3 DUP5 CALLDATACOPY PUSH1 0x0 SWAP3 ADD SWAP2 SWAP1 SWAP2 MSTORE POP SWAP3 SWAP6 POP PUSH2 0x101B SWAP5 POP POP POP POP POP JUMP JUMPDEST CALLVALUE DUP1 ISZERO PUSH2 0x3C4 JUMPI PUSH1 0x0 DUP1 REVERT JUMPDEST POP PUSH2 0x1F3 PUSH1 0x4 DUP1 CALLDATASIZE SUB PUSH2 0x160 DUP2 LT ISZERO PUSH2 0x3DC JUMPI PUSH1 0x0 DUP1 REVERT JUMPDEST POP PUSH20 0xFFFFFFFFFFFFFFFFFFFFFFFFFFFFFFFFFFFFFFFF DUP2 CALLDATALOAD DUP2 AND SWAP2 PUSH1 0x20 DUP2 ADD CALLDATALOAD DUP3 AND SWAP2 PUSH1 0x40 DUP3 ADD CALLDATALOAD SWAP2 PUSH1 0x60 DUP2 ADD CALLDATALOAD SWAP2 PUSH1 0x80 DUP3 ADD CALLDATALOAD SWAP2 PUSH1 0xA0 DUP2 ADD CALLDATALOAD SWAP1 SWAP2 AND SWAP1 PUSH1 0xC0 DUP2 ADD CALLDATALOAD SWAP1 PUSH1 0xE0 DUP2 ADD CALLDATALOAD ISZERO ISZERO SWAP1 PUSH1 0xFF PUSH2 0x100 DUP3 ADD CALLDATALOAD AND SWAP1 PUSH2 0x120 DUP2 ADD CALLDATALOAD SWAP1 PUSH2 0x140 ADD CALLDATALOAD PUSH2 0x1051 JUMP JUMPDEST CALLVALUE DUP1 ISZERO PUSH2 0x44F JUMPI PUSH1 0x0 DUP1 REVERT JUMPDEST POP PUSH2 0x2B1 PUSH1 0x4 DUP1 CALLDATASIZE SUB PUSH1 0xA0 DUP2 LT ISZERO PUSH2 0x466 JUMPI PUSH1 0x0 DUP1 REVERT JUMPDEST DUP2 CALLDATALOAD SWAP2 PUSH1 0x20 DUP2 ADD CALLDATALOAD SWAP2 DUP2 ADD SWAP1 PUSH1 0x60 DUP2 ADD PUSH1 0x40 DUP3 ADD CALLDATALOAD PUSH5 0x100000000 DUP2 GT ISZERO PUSH2 0x48D JUMPI PUSH1 0x0 DUP1 REVERT JUMPDEST DUP3 ADD DUP4 PUSH1 0x20 DUP3 ADD GT ISZERO PUSH2 0x49F JUMPI PUSH1 0x0 DUP1 REVERT JUMPDEST DUP1 CALLDATALOAD SWAP1 PUSH1 0x20 ADD SWAP2 DUP5 PUSH1 0x20 DUP4 MUL DUP5 ADD GT PUSH5 0x100000000 DUP4 GT OR ISZERO PUSH2 0x4C1 JUMPI PUSH1 0x0 DUP1 REVERT JUMPDEST SWAP2 SWAP4 POP SWAP2 POP PUSH20 0xFFFFFFFFFFFFFFFFFFFFFFFFFFFFFFFFFFFFFFFF DUP2 CALLDATALOAD AND SWAP1 PUSH1 0x20 ADD CALLDATALOAD PUSH2 0x118F JUMP JUMPDEST CALLVALUE DUP1 ISZERO PUSH2 0x4F4 JUMPI PUSH1 0x0 DUP1 REVERT JUMPDEST POP PUSH2 0x2B1 PUSH1 0x4 DUP1 CALLDATASIZE SUB PUSH1 0xA0 DUP2 LT ISZERO PUSH2 0x50B JUMPI PUSH1 0x0 DUP1 REVERT JUMPDEST DUP2 CALLDATALOAD SWAP2 PUSH1 0x20 DUP2 ADD CALLDATALOAD SWAP2 DUP2 ADD SWAP1 PUSH1 0x60 DUP2 ADD PUSH1 0x40 DUP3 ADD CALLDATALOAD PUSH5 0x100000000 DUP2 GT ISZERO PUSH2 0x532 JUMPI PUSH1 0x0 DUP1 REVERT JUMPDEST DUP3 ADD DUP4 PUSH1 0x20 DUP3 ADD GT ISZERO PUSH2 0x544 JUMPI PUSH1 0x0 DUP1 REVERT JUMPDEST DUP1 CALLDATALOAD SWAP1 PUSH1 0x20 ADD SWAP2 DUP5 PUSH1 0x20 DUP4 MUL DUP5 ADD GT PUSH5 0x100000000 DUP4 GT OR ISZERO PUSH2 0x566 JUMPI PUSH1 0x0 DUP1 REVERT JUMPDEST SWAP2 SWAP4 POP SWAP2 POP PUSH20 0xFFFFFFFFFFFFFFFFFFFFFFFFFFFFFFFFFFFFFFFF DUP2 CALLDATALOAD AND SWAP1 PUSH1 0x20 ADD CALLDATALOAD PUSH2 0x1320 JUMP JUMPDEST CALLVALUE DUP1 ISZERO PUSH2 0x599 JUMPI PUSH1 0x0 DUP1 REVERT JUMPDEST POP PUSH2 0x5C9 PUSH1 0x4 DUP1 CALLDATASIZE SUB PUSH1 0x80 DUP2 LT ISZERO PUSH2 0x5B0 JUMPI PUSH1 0x0 DUP1 REVERT JUMPDEST POP DUP1 CALLDATALOAD SWAP1 PUSH1 0x20 DUP2 ADD CALLDATALOAD SWAP1 PUSH1 0x40 DUP2 ADD CALLDATALOAD SWAP1 PUSH1 0x60 ADD CALLDATALOAD PUSH2 0x1563 JUMP JUMPDEST PUSH1 0x40 DUP1 MLOAD SWAP2 DUP3 MSTORE MLOAD SWAP1 DUP2 SWAP1 SUB PUSH1 0x20 ADD SWAP1 RETURN JUMPDEST PUSH2 0x2B1 PUSH1 0x4 DUP1 CALLDATASIZE SUB PUSH1 0x80 DUP2 LT ISZERO PUSH2 0x5F1 JUMPI PUSH1 0x0 DUP1 REVERT JUMPDEST DUP2 CALLDATALOAD SWAP2 SWAP1 DUP2 ADD SWAP1 PUSH1 0x40 DUP2 ADD PUSH1 0x20 DUP3 ADD CALLDATALOAD PUSH5 0x100000000 DUP2 GT ISZERO PUSH2 0x613 JUMPI PUSH1 0x0 DUP1 REVERT JUMPDEST DUP3 ADD DUP4 PUSH1 0x20 DUP3 ADD GT ISZERO PUSH2 0x625 JUMPI PUSH1 0x0 DUP1 REVERT JUMPDEST DUP1 CALLDATALOAD SWAP1 PUSH1 0x20 ADD SWAP2 DUP5 PUSH1 0x20 DUP4 MUL DUP5 ADD GT PUSH5 0x100000000 DUP4 GT OR ISZERO PUSH2 0x647 JUMPI PUSH1 0x0 DUP1 REVERT JUMPDEST SWAP2 SWAP4 POP SWAP2 POP PUSH20 0xFFFFFFFFFFFFFFFFFFFFFFFFFFFFFFFFFFFFFFFF DUP2 CALLDATALOAD AND SWAP1 PUSH1 0x20 ADD CALLDATALOAD PUSH2 0x157A JUMP JUMPDEST CALLVALUE DUP1 ISZERO PUSH2 0x67A JUMPI PUSH1 0x0 DUP1 REVERT JUMPDEST POP PUSH2 0x2B1 PUSH1 0x4 DUP1 CALLDATASIZE SUB PUSH1 0xA0 DUP2 LT ISZERO PUSH2 0x691 JUMPI PUSH1 0x0 DUP1 REVERT JUMPDEST DUP2 CALLDATALOAD SWAP2 PUSH1 0x20 DUP2 ADD CALLDATALOAD SWAP2 DUP2 ADD SWAP1 PUSH1 0x60 DUP2 ADD PUSH1 0x40 DUP3 ADD CALLDATALOAD PUSH5 0x100000000 DUP2 GT ISZERO PUSH2 0x6B8 JUMPI PUSH1 0x0 DUP1 REVERT JUMPDEST DUP3 ADD DUP4 PUSH1 0x20 DUP3 ADD GT ISZERO PUSH2 0x6CA JUMPI PUSH1 0x0 DUP1 REVERT JUMPDEST DUP1 CALLDATALOAD SWAP1 PUSH1 0x20 ADD SWAP2 DUP5 PUSH1 0x20 DUP4 MUL DUP5 ADD GT PUSH5 0x100000000 DUP4 GT OR ISZERO PUSH2 0x6EC JUMPI PUSH1 0x0 DUP1 REVERT JUMPDEST SWAP2 SWAP4 POP SWAP2 POP PUSH20 0xFFFFFFFFFFFFFFFFFFFFFFFFFFFFFFFFFFFFFFFF DUP2 CALLDATALOAD AND SWAP1 PUSH1 0x20 ADD CALLDATALOAD PUSH2 0x19AE JUMP JUMPDEST CALLVALUE DUP1 ISZERO PUSH2 0x71F JUMPI PUSH1 0x0 DUP1 REVERT JUMPDEST POP PUSH2 0x728 PUSH2 0x1AED JUMP JUMPDEST PUSH1 0x40 DUP1 MLOAD PUSH20 0xFFFFFFFFFFFFFFFFFFFFFFFFFFFFFFFFFFFFFFFF SWAP1 SWAP3 AND DUP3 MSTORE MLOAD SWAP1 DUP2 SWAP1 SUB PUSH1 0x20 ADD SWAP1 RETURN JUMPDEST CALLVALUE DUP1 ISZERO PUSH2 0x75D JUMPI PUSH1 0x0 DUP1 REVERT JUMPDEST POP PUSH2 0x5C9 PUSH1 0x4 DUP1 CALLDATASIZE SUB PUSH1 0x60 DUP2 LT ISZERO PUSH2 0x774 JUMPI PUSH1 0x0 DUP1 REVERT JUMPDEST POP DUP1 CALLDATALOAD SWAP1 PUSH1 0x20 DUP2 ADD CALLDATALOAD SWAP1 PUSH1 0x40 ADD CALLDATALOAD PUSH2 0x1B11 JUMP JUMPDEST CALLVALUE DUP1 ISZERO PUSH2 0x793 JUMPI PUSH1 0x0 DUP1 REVERT JUMPDEST POP PUSH2 0x1F3 PUSH1 0x4 DUP1 CALLDATASIZE SUB PUSH1 0xE0 DUP2 LT ISZERO PUSH2 0x7AA JUMPI PUSH1 0x0 DUP1 REVERT JUMPDEST POP PUSH20 0xFFFFFFFFFFFFFFFFFFFFFFFFFFFFFFFFFFFFFFFF DUP2 CALLDATALOAD DUP2 AND SWAP2 PUSH1 0x20 DUP2 ADD CALLDATALOAD DUP3 AND SWAP2 PUSH1 0x40 DUP3 ADD CALLDATALOAD SWAP2 PUSH1 0x60 DUP2 ADD CALLDATALOAD SWAP2 PUSH1 0x80 DUP3 ADD CALLDATALOAD SWAP2 PUSH1 0xA0 DUP2 ADD CALLDATALOAD SWAP1 SWAP2 AND SWAP1 PUSH1 0xC0 ADD CALLDATALOAD PUSH2 0x1B26 JUMP JUMPDEST CALLVALUE DUP1 ISZERO PUSH2 0x7FD JUMPI PUSH1 0x0 DUP1 REVERT JUMPDEST POP PUSH2 0x728 PUSH2 0x1E30 JUMP JUMPDEST CALLVALUE DUP1 ISZERO PUSH2 0x812 JUMPI PUSH1 0x0 DUP1 REVERT JUMPDEST POP PUSH2 0x2B1 PUSH1 0x4 DUP1 CALLDATASIZE SUB PUSH1 0x40 DUP2 LT ISZERO PUSH2 0x829 JUMPI PUSH1 0x0 DUP1 REVERT JUMPDEST DUP2 CALLDATALOAD SWAP2 SWAP1 DUP2 ADD SWAP1 PUSH1 0x40 DUP2 ADD PUSH1 0x20 DUP3 ADD CALLDATALOAD PUSH5 0x100000000 DUP2 GT ISZERO PUSH2 0x84B JUMPI PUSH1 0x0 DUP1 REVERT JUMPDEST DUP3 ADD DUP4 PUSH1 0x20 DUP3 ADD GT ISZERO PUSH2 0x85D JUMPI PUSH1 0x0 DUP1 REVERT JUMPDEST DUP1 CALLDATALOAD SWAP1 PUSH1 0x20 ADD SWAP2 DUP5 PUSH1 0x20 DUP4 MUL DUP5 ADD GT PUSH5 0x100000000 DUP4 GT OR ISZERO PUSH2 0x87F JUMPI PUSH1 0x0 DUP1 REVERT JUMPDEST SWAP2 SWAP1 DUP1 DUP1 PUSH1 0x20 MUL PUSH1 0x20 ADD PUSH1 0x40 MLOAD SWAP1 DUP2 ADD PUSH1 0x40 MSTORE DUP1 SWAP4 SWAP3 SWAP2 SWAP1 DUP2 DUP2 MSTORE PUSH1 0x20 ADD DUP4 DUP4 PUSH1 0x20 MUL DUP1 DUP3 DUP5 CALLDATACOPY PUSH1 0x0 SWAP3 ADD SWAP2 SWAP1 SWAP2 MSTORE POP SWAP3 SWAP6 POP PUSH2 0x1E54 SWAP5 POP POP POP POP POP JUMP JUMPDEST CALLVALUE DUP1 ISZERO PUSH2 0x8C9 JUMPI PUSH1 0x0 DUP1 REVERT JUMPDEST POP PUSH2 0x1F3 PUSH1 0x4 DUP1 CALLDATASIZE SUB PUSH2 0x140 DUP2 LT ISZERO PUSH2 0x8E1 JUMPI PUSH1 0x0 DUP1 REVERT JUMPDEST POP PUSH20 0xFFFFFFFFFFFFFFFFFFFFFFFFFFFFFFFFFFFFFFFF DUP2 CALLDATALOAD DUP2 AND SWAP2 PUSH1 0x20 DUP2 ADD CALLDATALOAD SWAP2 PUSH1 0x40 DUP3 ADD CALLDATALOAD SWAP2 PUSH1 0x60 DUP2 ADD CALLDATALOAD SWAP2 PUSH1 0x80 DUP3 ADD CALLDATALOAD AND SWAP1 PUSH1 0xA0 DUP2 ADD CALLDATALOAD SWAP1 PUSH1 0xC0 DUP2 ADD CALLDATALOAD ISZERO ISZERO SWAP1 PUSH1 0xFF PUSH1 0xE0 DUP3 ADD CALLDATALOAD AND SWAP1 PUSH2 0x100 DUP2 ADD CALLDATALOAD SWAP1 PUSH2 0x120 ADD CALLDATALOAD PUSH2 0x1E81 JUMP JUMPDEST CALLVALUE DUP1 ISZERO PUSH2 0x949 JUMPI PUSH1 0x0 DUP1 REVERT JUMPDEST POP PUSH2 0x9AC PUSH1 0x4 DUP1 CALLDATASIZE SUB PUSH2 0x100 DUP2 LT ISZERO PUSH2 0x961 JUMPI PUSH1 0x0 DUP1 REVERT JUMPDEST POP PUSH20 0xFFFFFFFFFFFFFFFFFFFFFFFFFFFFFFFFFFFFFFFF DUP2 CALLDATALOAD DUP2 AND SWAP2 PUSH1 0x20 DUP2 ADD CALLDATALOAD DUP3 AND SWAP2 PUSH1 0x40 DUP3 ADD CALLDATALOAD SWAP2 PUSH1 0x60 DUP2 ADD CALLDATALOAD SWAP2 PUSH1 0x80 DUP3 ADD CALLDATALOAD SWAP2 PUSH1 0xA0 DUP2 ADD CALLDATALOAD SWAP2 PUSH1 0xC0 DUP3 ADD CALLDATALOAD AND SWAP1 PUSH1 0xE0 ADD CALLDATALOAD PUSH2 0x1FD9 JUMP JUMPDEST PUSH1 0x40 DUP1 MLOAD SWAP4 DUP5 MSTORE PUSH1 0x20 DUP5 ADD SWAP3 SWAP1 SWAP3 MSTORE DUP3 DUP3 ADD MSTORE MLOAD SWAP1 DUP2 SWAP1 SUB PUSH1 0x60 ADD SWAP1 RETURN JUMPDEST PUSH2 0x9AC PUSH1 0x4 DUP1 CALLDATASIZE SUB PUSH1 0xC0 DUP2 LT ISZERO PUSH2 0x9E0 JUMPI PUSH1 0x0 DUP1 REVERT JUMPDEST POP PUSH20 0xFFFFFFFFFFFFFFFFFFFFFFFFFFFFFFFFFFFFFFFF DUP2 CALLDATALOAD DUP2 AND SWAP2 PUSH1 0x20 DUP2 ADD CALLDATALOAD SWAP2 PUSH1 0x40 DUP3 ADD CALLDATALOAD SWAP2 PUSH1 0x60 DUP2 ADD CALLDATALOAD SWAP2 PUSH1 0x80 DUP3 ADD CALLDATALOAD AND SWAP1 PUSH1 0xA0 ADD CALLDATALOAD PUSH2 0x2152 JUMP JUMPDEST PUSH2 0x2B1 PUSH1 0x4 DUP1 CALLDATASIZE SUB PUSH1 0x80 DUP2 LT ISZERO PUSH2 0xA33 JUMPI PUSH1 0x0 DUP1 REVERT JUMPDEST DUP2 CALLDATALOAD SWAP2 SWAP1 DUP2 ADD SWAP1 PUSH1 0x40 DUP2 ADD PUSH1 0x20 DUP3 ADD CALLDATALOAD PUSH5 0x100000000 DUP2 GT ISZERO PUSH2 0xA55 JUMPI PUSH1 0x0 DUP1 REVERT JUMPDEST DUP3 ADD DUP4 PUSH1 0x20 DUP3 ADD GT ISZERO PUSH2 0xA67 JUMPI PUSH1 0x0 DUP1 REVERT JUMPDEST DUP1 CALLDATALOAD SWAP1 PUSH1 0x20 ADD SWAP2 DUP5 PUSH1 0x20 DUP4 MUL DUP5 ADD GT PUSH5 0x100000000 DUP4 GT OR ISZERO PUSH2 0xA89 JUMPI PUSH1 0x0 DUP1 REVERT JUMPDEST SWAP2 SWAP4 POP SWAP2 POP PUSH20 0xFFFFFFFFFFFFFFFFFFFFFFFFFFFFFFFFFFFFFFFF DUP2 CALLDATALOAD AND SWAP1 PUSH1 0x20 ADD CALLDATALOAD PUSH2 0x2452 JUMP JUMPDEST PUSH1 0x0 DUP1 DUP3 TIMESTAMP DUP2 LT ISZERO PUSH2 0xB23 JUMPI PUSH1 0x40 DUP1 MLOAD PUSH32 0x8C379A000000000000000000000000000000000000000000000000000000000 DUP2 MSTORE PUSH1 0x20 PUSH1 0x4 DUP3 ADD MSTORE PUSH1 0x1B PUSH1 0x24 DUP3 ADD MSTORE PUSH32 0x436166655377617056325632526F757465723A20455850495245440000000000 PUSH1 0x44 DUP3 ADD MSTORE SWAP1 MLOAD SWAP1 DUP2 SWAP1 SUB PUSH1 0x64 ADD SWAP1 REVERT JUMPDEST PUSH2 0xB52 DUP10 PUSH32 0x0 DUP11 DUP11 DUP11 ADDRESS DUP11 PUSH2 0x1B26 JUMP JUMPDEST SWAP1 SWAP4 POP SWAP2 POP PUSH2 0xB62 DUP10 DUP7 DUP6 PUSH2 0x288B JUMP JUMPDEST PUSH32 0x0 PUSH20 0xFFFFFFFFFFFFFFFFFFFFFFFFFFFFFFFFFFFFFFFF AND PUSH4 0x2E1A7D4D DUP4 PUSH1 0x40 MLOAD DUP3 PUSH4 0xFFFFFFFF AND PUSH1 0xE0 SHL DUP2 MSTORE PUSH1 0x4 ADD DUP1 DUP3 DUP2 MSTORE PUSH1 0x20 ADD SWAP2 POP POP PUSH1 0x0 PUSH1 0x40 MLOAD DUP1 DUP4 SUB DUP2 PUSH1 0x0 DUP8 DUP1 EXTCODESIZE ISZERO DUP1 ISZERO PUSH2 0xBD5 JUMPI PUSH1 0x0 DUP1 REVERT JUMPDEST POP GAS CALL ISZERO DUP1 ISZERO PUSH2 0xBE9 JUMPI RETURNDATASIZE PUSH1 0x0 DUP1 RETURNDATACOPY RETURNDATASIZE PUSH1 0x0 REVERT JUMPDEST POP POP POP POP PUSH2 0xBF7 DUP6 DUP4 PUSH2 0x2A52 JUMP JUMPDEST POP SWAP7 POP SWAP7 SWAP5 POP POP POP POP POP JUMP JUMPDEST PUSH1 0x60 DUP2 TIMESTAMP DUP2 LT ISZERO PUSH2 0xC75 JUMPI PUSH1 0x40 DUP1 MLOAD PUSH32 0x8C379A000000000000000000000000000000000000000000000000000000000 DUP2 MSTORE PUSH1 0x20 PUSH1 0x4 DUP3 ADD MSTORE PUSH1 0x1B PUSH1 0x24 DUP3 ADD MSTORE PUSH32 0x436166655377617056325632526F757465723A20455850495245440000000000 PUSH1 0x44 DUP3 ADD MSTORE SWAP1 MLOAD SWAP1 DUP2 SWAP1 SUB PUSH1 0x64 ADD SWAP1 REVERT JUMPDEST PUSH20 0xFFFFFFFFFFFFFFFFFFFFFFFFFFFFFFFFFFFFFFFF PUSH32 0x0 AND DUP7 DUP7 PUSH32 0xFFFFFFFFFFFFFFFFFFFFFFFFFFFFFFFFFFFFFFFFFFFFFFFFFFFFFFFFFFFFFFFF DUP2 ADD DUP2 DUP2 LT PUSH2 0xCDA JUMPI INVALID JUMPDEST SWAP1 POP PUSH1 0x20 MUL ADD CALLDATALOAD PUSH20 0xFFFFFFFFFFFFFFFFFFFFFFFFFFFFFFFFFFFFFFFF AND PUSH20 0xFFFFFFFFFFFFFFFFFFFFFFFFFFFFFFFFFFFFFFFF AND EQ PUSH2 0xD79 JUMPI PUSH1 0x40 DUP1 MLOAD PUSH32 0x8C379A000000000000000000000000000000000000000000000000000000000 DUP2 MSTORE PUSH1 0x20 PUSH1 0x4 DUP3 ADD DUP2 SWAP1 MSTORE PUSH1 0x24 DUP3 ADD MSTORE PUSH32 0x436166655377617056325632526F757465723A20494E56414C49445F50415448 PUSH1 0x44 DUP3 ADD MSTORE SWAP1 MLOAD SWAP1 DUP2 SWAP1 SUB PUSH1 0x64 ADD SWAP1 REVERT JUMPDEST PUSH2 0xDD7 PUSH32 0x0 DUP10 DUP9 DUP9 DUP1 DUP1 PUSH1 0x20 MUL PUSH1 0x20 ADD PUSH1 0x40 MLOAD SWAP1 DUP2 ADD PUSH1 0x40 MSTORE DUP1 SWAP4 SWAP3 SWAP2 SWAP1 DUP2 DUP2 MSTORE PUSH1 0x20 ADD DUP4 DUP4 PUSH1 0x20 MUL DUP1 DUP3 DUP5 CALLDATACOPY PUSH1 0x0 SWAP3 ADD SWAP2 SWAP1 SWAP2 MSTORE POP PUSH2 0x2B8F SWAP3 POP POP POP JUMP JUMPDEST SWAP2 POP DUP7 DUP3 PUSH1 0x1 DUP5 MLOAD SUB DUP2 MLOAD DUP2 LT PUSH2 0xDEA JUMPI INVALID JUMPDEST PUSH1 0x20 MUL PUSH1 0x20 ADD ADD MLOAD LT ISZERO PUSH2 0xE49 JUMPI PUSH1 0x40 MLOAD PUSH32 0x8C379A000000000000000000000000000000000000000000000000000000000 DUP2 MSTORE PUSH1 0x4 ADD DUP1 DUP1 PUSH1 0x20 ADD DUP3 DUP2 SUB DUP3 MSTORE PUSH1 0x2E DUP2 MSTORE PUSH1 0x20 ADD DUP1 PUSH2 0x3EEC PUSH1 0x2E SWAP2 CODECOPY PUSH1 0x40 ADD SWAP2 POP POP PUSH1 0x40 MLOAD DUP1 SWAP2 SUB SWAP1 REVERT JUMPDEST PUSH2 0xF0E DUP7 DUP7 PUSH1 0x0 DUP2 DUP2 LT PUSH2 0xE59 JUMPI INVALID JUMPDEST SWAP1 POP PUSH1 0x20 MUL ADD CALLDATALOAD PUSH20 0xFFFFFFFFFFFFFFFFFFFFFFFFFFFFFFFFFFFFFFFF AND CALLER PUSH2 0xEF4 PUSH32 0x0 DUP11 DUP11 PUSH1 0x0 DUP2 DUP2 LT PUSH2 0xEA8 JUMPI INVALID JUMPDEST SWAP1 POP PUSH1 0x20 MUL ADD CALLDATALOAD PUSH20 0xFFFFFFFFFFFFFFFFFFFFFFFFFFFFFFFFFFFFFFFF AND DUP12 DUP12 PUSH1 0x1 DUP2 DUP2 LT PUSH2 0xED2 JUMPI INVALID JUMPDEST SWAP1 POP PUSH1 0x20 MUL ADD CALLDATALOAD PUSH20 0xFFFFFFFFFFFFFFFFFFFFFFFFFFFFFFFFFFFFFFFF AND PUSH2 0x2D29 JUMP JUMPDEST DUP6 PUSH1 0x0 DUP2 MLOAD DUP2 LT PUSH2 0xF01 JUMPI INVALID JUMPDEST PUSH1 0x20 MUL PUSH1 0x20 ADD ADD MLOAD PUSH2 0x2E14 JUMP JUMPDEST PUSH2 0xF4D DUP3 DUP8 DUP8 DUP1 DUP1 PUSH1 0x20 MUL PUSH1 0x20 ADD PUSH1 0x40 MLOAD SWAP1 DUP2 ADD PUSH1 0x40 MSTORE DUP1 SWAP4 SWAP3 SWAP2 SWAP1 DUP2 DUP2 MSTORE PUSH1 0x20 ADD DUP4 DUP4 PUSH1 0x20 MUL DUP1 DUP3 DUP5 CALLDATACOPY PUSH1 0x0 SWAP3 ADD SWAP2 SWAP1 SWAP2 MSTORE POP ADDRESS SWAP3 POP PUSH2 0x2FE4 SWAP2 POP POP JUMP JUMPDEST PUSH32 0x0 PUSH20 0xFFFFFFFFFFFFFFFFFFFFFFFFFFFFFFFFFFFFFFFF AND PUSH4 0x2E1A7D4D DUP4 PUSH1 0x1 DUP6 MLOAD SUB DUP2 MLOAD DUP2 LT PUSH2 0xF99 JUMPI INVALID JUMPDEST PUSH1 0x20 MUL PUSH1 0x20 ADD ADD MLOAD PUSH1 0x40 MLOAD DUP3 PUSH4 0xFFFFFFFF AND PUSH1 0xE0 SHL DUP2 MSTORE PUSH1 0x4 ADD DUP1 DUP3 DUP2 MSTORE PUSH1 0x20 ADD SWAP2 POP POP PUSH1 0x0 PUSH1 0x40 MLOAD DUP1 DUP4 SUB DUP2 PUSH1 0x0 DUP8 DUP1 EXTCODESIZE ISZERO DUP1 ISZERO PUSH2 0xFD7 JUMPI PUSH1 0x0 DUP1 REVERT JUMPDEST POP GAS CALL ISZERO DUP1 ISZERO PUSH2 0xFEB JUMPI RETURNDATASIZE PUSH1 0x0 DUP1 RETURNDATACOPY RETURNDATASIZE PUSH1 0x0 REVERT JUMPDEST POP POP POP POP PUSH2 0x1010 DUP5 DUP4 PUSH1 0x1 DUP6 MLOAD SUB DUP2 MLOAD DUP2 LT PUSH2 0x1003 JUMPI INVALID JUMPDEST PUSH1 0x20 MUL PUSH1 0x20 ADD ADD MLOAD PUSH2 0x2A52 JUMP JUMPDEST POP SWAP7 SWAP6 POP POP POP POP POP POP JUMP JUMPDEST PUSH1 0x60 PUSH2 0x1048 PUSH32 0x0 DUP5 DUP5 PUSH2 0x3255 JUMP JUMPDEST SWAP1 POP JUMPDEST SWAP3 SWAP2 POP POP JUMP JUMPDEST PUSH1 0x0 DUP1 PUSH1 0x0 PUSH2 0x1081 PUSH32 0x0 DUP16 DUP16 PUSH2 0x2D29 JUMP JUMPDEST SWAP1 POP PUSH1 0x0 DUP8 PUSH2 0x1090 JUMPI DUP13 PUSH2 0x10B2 JUMP JUMPDEST PUSH32 0xFFFFFFFFFFFFFFFFFFFFFFFFFFFFFFFFFFFFFFFFFFFFFFFFFFFFFFFFFFFFFFFF JUMPDEST PUSH1 0x40 DUP1 MLOAD PUSH32 0xD505ACCF00000000000000000000000000000000000000000000000000000000 DUP2 MSTORE CALLER PUSH1 0x4 DUP3 ADD MSTORE ADDRESS PUSH1 0x24 DUP3 ADD MSTORE PUSH1 0x44 DUP2 ADD DUP4 SWAP1 MSTORE PUSH1 0x64 DUP2 ADD DUP13 SWAP1 MSTORE PUSH1 0xFF DUP11 AND PUSH1 0x84 DUP3 ADD MSTORE PUSH1 0xA4 DUP2 ADD DUP10 SWAP1 MSTORE PUSH1 0xC4 DUP2 ADD DUP9 SWAP1 MSTORE SWAP1 MLOAD SWAP2 SWAP3 POP PUSH20 0xFFFFFFFFFFFFFFFFFFFFFFFFFFFFFFFFFFFFFFFF DUP5 AND SWAP2 PUSH4 0xD505ACCF SWAP2 PUSH1 0xE4 DUP1 DUP3 ADD SWAP3 PUSH1 0x0 SWAP3 SWAP1 SWAP2 SWAP1 DUP3 SWAP1 SUB ADD DUP2 DUP4 DUP8 DUP1 EXTCODESIZE ISZERO DUP1 ISZERO PUSH2 0x114E JUMPI PUSH1 0x0 DUP1 REVERT JUMPDEST POP GAS CALL ISZERO DUP1 ISZERO PUSH2 0x1162 JUMPI RETURNDATASIZE PUSH1 0x0 DUP1 RETURNDATACOPY RETURNDATASIZE PUSH1 0x0 REVERT JUMPDEST POP POP POP POP PUSH2 0x1175 DUP16 DUP16 DUP16 DUP16 DUP16 DUP16 DUP16 PUSH2 0x1B26 JUMP JUMPDEST DUP1 SWAP5 POP DUP2 SWAP6 POP POP POP POP POP SWAP12 POP SWAP12 SWAP10 POP POP POP POP POP POP POP POP POP POP JUMP JUMPDEST PUSH1 0x60 DUP2 TIMESTAMP DUP2 LT ISZERO PUSH2 0x1201 JUMPI PUSH1 0x40 DUP1 MLOAD PUSH32 0x8C379A000000000000000000000000000000000000000000000000000000000 DUP2 MSTORE PUSH1 0x20 PUSH1 0x4 DUP3 ADD MSTORE PUSH1 0x1B PUSH1 0x24 DUP3 ADD MSTORE PUSH32 0x436166655377617056325632526F757465723A20455850495245440000000000 PUSH1 0x44 DUP3 ADD MSTORE SWAP1 MLOAD SWAP1 DUP2 SWAP1 SUB PUSH1 0x64 ADD SWAP1 REVERT JUMPDEST PUSH2 0x125F PUSH32 0x0 DUP10 DUP9 DUP9 DUP1 DUP1 PUSH1 0x20 MUL PUSH1 0x20 ADD PUSH1 0x40 MLOAD SWAP1 DUP2 ADD PUSH1 0x40 MSTORE DUP1 SWAP4 SWAP3 SWAP2 SWAP1 DUP2 DUP2 MSTORE PUSH1 0x20 ADD DUP4 DUP4 PUSH1 0x20 MUL DUP1 DUP3 DUP5 CALLDATACOPY PUSH1 0x0 SWAP3 ADD SWAP2 SWAP1 SWAP2 MSTORE POP PUSH2 0x2B8F SWAP3 POP POP POP JUMP JUMPDEST SWAP2 POP DUP7 DUP3 PUSH1 0x1 DUP5 MLOAD SUB DUP2 MLOAD DUP2 LT PUSH2 0x1272 JUMPI INVALID JUMPDEST PUSH1 0x20 MUL PUSH1 0x20 ADD ADD MLOAD LT ISZERO PUSH2 0x12D1 JUMPI PUSH1 0x40 MLOAD PUSH32 0x8C379A000000000000000000000000000000000000000000000000000000000 DUP2 MSTORE PUSH1 0x4 ADD DUP1 DUP1 PUSH1 0x20 ADD DUP3 DUP2 SUB DUP3 MSTORE PUSH1 0x2E DUP2 MSTORE PUSH1 0x20 ADD DUP1 PUSH2 0x3EEC PUSH1 0x2E SWAP2 CODECOPY PUSH1 0x40 ADD SWAP2 POP POP PUSH1 0x40 MLOAD DUP1 SWAP2 SUB SWAP1 REVERT JUMPDEST PUSH2 0x12E1 DUP7 DUP7 PUSH1 0x0 DUP2 DUP2 LT PUSH2 0xE59 JUMPI INVALID JUMPDEST PUSH2 0x1010 DUP3 DUP8 DUP8 DUP1 DUP1 PUSH1 0x20 MUL PUSH1 0x20 ADD PUSH1 0x40 MLOAD SWAP1 DUP2 ADD PUSH1 0x40 MSTORE DUP1 SWAP4 SWAP3 SWAP2 SWAP1 DUP2 DUP2 MSTORE PUSH1 0x20 ADD DUP4 DUP4 PUSH1 0x20 MUL DUP1 DUP3 DUP5 CALLDATACOPY PUSH1 0x0 SWAP3 ADD SWAP2 SWAP1 SWAP2 MSTORE POP DUP10 SWAP3 POP PUSH2 0x2FE4 SWAP2 POP POP JUMP JUMPDEST PUSH1 0x60 DUP2 TIMESTAMP DUP2 LT ISZERO PUSH2 0x1392 JUMPI PUSH1 0x40 DUP1 MLOAD PUSH32 0x8C379A000000000000000000000000000000000000000000000000000000000 DUP2 MSTORE PUSH1 0x20 PUSH1 0x4 DUP3 ADD MSTORE PUSH1 0x1B PUSH1 0x24 DUP3 ADD MSTORE PUSH32 0x436166655377617056325632526F757465723A20455850495245440000000000 PUSH1 0x44 DUP3 ADD MSTORE SWAP1 MLOAD SWAP1 DUP2 SWAP1 SUB PUSH1 0x64 ADD SWAP1 REVERT JUMPDEST PUSH20 0xFFFFFFFFFFFFFFFFFFFFFFFFFFFFFFFFFFFFFFFF PUSH32 0x0 AND DUP7 DUP7 PUSH32 0xFFFFFFFFFFFFFFFFFFFFFFFFFFFFFFFFFFFFFFFFFFFFFFFFFFFFFFFFFFFFFFFF DUP2 ADD DUP2 DUP2 LT PUSH2 0x13F7 JUMPI INVALID JUMPDEST SWAP1 POP PUSH1 0x20 MUL ADD CALLDATALOAD PUSH20 0xFFFFFFFFFFFFFFFFFFFFFFFFFFFFFFFFFFFFFFFF AND PUSH20 0xFFFFFFFFFFFFFFFFFFFFFFFFFFFFFFFFFFFFFFFF AND EQ PUSH2 0x1496 JUMPI PUSH1 0x40 DUP1 MLOAD PUSH32 0x8C379A000000000000000000000000000000000000000000000000000000000 DUP2 MSTORE PUSH1 0x20 PUSH1 0x4 DUP3 ADD DUP2 SWAP1 MSTORE PUSH1 0x24 DUP3 ADD MSTORE PUSH32 0x436166655377617056325632526F757465723A20494E56414C49445F50415448 PUSH1 0x44 DUP3 ADD MSTORE SWAP1 MLOAD SWAP1 DUP2 SWAP1 SUB PUSH1 0x64 ADD SWAP1 REVERT JUMPDEST PUSH2 0x14F4 PUSH32 0x0 DUP10 DUP9 DUP9 DUP1 DUP1 PUSH1 0x20 MUL PUSH1 0x20 ADD PUSH1 0x40 MLOAD SWAP1 DUP2 ADD PUSH1 0x40 MSTORE DUP1 SWAP4 SWAP3 SWAP2 SWAP1 DUP2 DUP2 MSTORE PUSH1 0x20 ADD DUP4 DUP4 PUSH1 0x20 MUL DUP1 DUP3 DUP5 CALLDATACOPY PUSH1 0x0 SWAP3 ADD SWAP2 SWAP1 SWAP2 MSTORE POP PUSH2 0x3255 SWAP3 POP POP POP JUMP JUMPDEST SWAP2 POP DUP7 DUP3 PUSH1 0x0 DUP2 MLOAD DUP2 LT PUSH2 0x1504 JUMPI INVALID JUMPDEST PUSH1 0x20 MUL PUSH1 0x20 ADD ADD MLOAD GT ISZERO PUSH2 0xE49 JUMPI PUSH1 0x40 MLOAD PUSH32 0x8C379A000000000000000000000000000000000000000000000000000000000 DUP2 MSTORE PUSH1 0x4 ADD DUP1 DUP1 PUSH1 0x20 ADD DUP3 DUP2 SUB DUP3 MSTORE PUSH1 0x2A DUP2 MSTORE PUSH1 0x20 ADD DUP1 PUSH2 0x3EC2 PUSH1 0x2A SWAP2 CODECOPY PUSH1 0x40 ADD SWAP2 POP POP PUSH1 0x40 MLOAD DUP1 SWAP2 SUB SWAP1 REVERT JUMPDEST PUSH1 0x0 PUSH2 0x1571 DUP6 DUP6 DUP6 DUP6 PUSH2 0x340A JUMP JUMPDEST SWAP6 SWAP5 POP POP POP POP POP JUMP JUMPDEST PUSH1 0x60 DUP2 TIMESTAMP DUP2 LT ISZERO PUSH2 0x15EC JUMPI PUSH1 0x40 DUP1 MLOAD PUSH32 0x8C379A000000000000000000000000000000000000000000000000000000000 DUP2 MSTORE PUSH1 0x20 PUSH1 0x4 DUP3 ADD MSTORE PUSH1 0x1B PUSH1 0x24 DUP3 ADD MSTORE PUSH32 0x436166655377617056325632526F757465723A20455850495245440000000000 PUSH1 0x44 DUP3 ADD MSTORE SWAP1 MLOAD SWAP1 DUP2 SWAP1 SUB PUSH1 0x64 ADD SWAP1 REVERT JUMPDEST PUSH32 0x0 PUSH20 0xFFFFFFFFFFFFFFFFFFFFFFFFFFFFFFFFFFFFFFFF AND DUP7 DUP7 PUSH1 0x0 DUP2 DUP2 LT PUSH2 0x1630 JUMPI INVALID JUMPDEST SWAP1 POP PUSH1 0x20 MUL ADD CALLDATALOAD PUSH20 0xFFFFFFFFFFFFFFFFFFFFFFFFFFFFFFFFFFFFFFFF AND PUSH20 0xFFFFFFFFFFFFFFFFFFFFFFFFFFFFFFFFFFFFFFFF AND EQ PUSH2 0x16CF JUMPI PUSH1 0x40 DUP1 MLOAD PUSH32 0x8C379A000000000000000000000000000000000000000000000000000000000 DUP2 MSTORE PUSH1 0x20 PUSH1 0x4 DUP3 ADD DUP2 SWAP1 MSTORE PUSH1 0x24 DUP3 ADD MSTORE PUSH32 0x436166655377617056325632526F757465723A20494E56414C49445F50415448 PUSH1 0x44 DUP3 ADD MSTORE SWAP1 MLOAD SWAP1 DUP2 SWAP1 SUB PUSH1 0x64 ADD SWAP1 REVERT JUMPDEST PUSH2 0x172D PUSH32 0x0 CALLVALUE DUP9 DUP9 DUP1 DUP1 PUSH1 0x20 MUL PUSH1 0x20 ADD PUSH1 0x40 MLOAD SWAP1 DUP2 ADD PUSH1 0x40 MSTORE DUP1 SWAP4 SWAP3 SWAP2 SWAP1 DUP2 DUP2 MSTORE PUSH1 0x20 ADD DUP4 DUP4 PUSH1 0x20 MUL DUP1 DUP3 DUP5 CALLDATACOPY PUSH1 0x0 SWAP3 ADD SWAP2 SWAP1 SWAP2 MSTORE POP PUSH2 0x2B8F SWAP3 POP POP POP JUMP JUMPDEST SWAP2 POP DUP7 DUP3 PUSH1 0x1 DUP5 MLOAD SUB DUP2 MLOAD DUP2 LT PUSH2 0x1740 JUMPI INVALID JUMPDEST PUSH1 0x20 MUL PUSH1 0x20 ADD ADD MLOAD LT ISZERO PUSH2 0x179F JUMPI PUSH1 0x40 MLOAD PUSH32 0x8C379A000000000000000000000000000000000000000000000000000000000 DUP2 MSTORE PUSH1 0x4 ADD DUP1 DUP1 PUSH1 0x20 ADD DUP3 DUP2 SUB DUP3 MSTORE PUSH1 0x2E DUP2 MSTORE PUSH1 0x20 ADD DUP1 PUSH2 0x3EEC PUSH1 0x2E SWAP2 CODECOPY PUSH1 0x40 ADD SWAP2 POP POP PUSH1 0x40 MLOAD DUP1 SWAP2 SUB SWAP1 REVERT JUMPDEST PUSH32 0x0 PUSH20 0xFFFFFFFFFFFFFFFFFFFFFFFFFFFFFFFFFFFFFFFF AND PUSH4 0xD0E30DB0 DUP4 PUSH1 0x0 DUP2 MLOAD DUP2 LT PUSH2 0x17E8 JUMPI INVALID JUMPDEST PUSH1 0x20 MUL PUSH1 0x20 ADD ADD MLOAD PUSH1 0x40 MLOAD DUP3 PUSH4 0xFFFFFFFF AND PUSH1 0xE0 SHL DUP2 MSTORE PUSH1 0x4 ADD PUSH1 0x0 PUSH1 0x40 MLOAD DUP1 DUP4 SUB DUP2 DUP6 DUP9 DUP1 EXTCODESIZE ISZERO DUP1 ISZERO PUSH2 0x181B JUMPI PUSH1 0x0 DUP1 REVERT JUMPDEST POP GAS CALL ISZERO DUP1 ISZERO PUSH2 0x182F JUMPI RETURNDATASIZE PUSH1 0x0 DUP1 RETURNDATACOPY RETURNDATASIZE PUSH1 0x0 REVERT JUMPDEST POP POP POP POP POP PUSH32 0x0 PUSH20 0xFFFFFFFFFFFFFFFFFFFFFFFFFFFFFFFFFFFFFFFF AND PUSH4 0xA9059CBB PUSH2 0x18CB PUSH32 0x0 DUP10 DUP10 PUSH1 0x0 DUP2 DUP2 LT PUSH2 0x18A1 JUMPI INVALID JUMPDEST SWAP1 POP PUSH1 0x20 MUL ADD CALLDATALOAD PUSH20 0xFFFFFFFFFFFFFFFFFFFFFFFFFFFFFFFFFFFFFFFF AND DUP11 DUP11 PUSH1 0x1 DUP2 DUP2 LT PUSH2 0xED2 JUMPI INVALID JUMPDEST DUP5 PUSH1 0x0 DUP2 MLOAD DUP2 LT PUSH2 0x18D8 JUMPI INVALID JUMPDEST PUSH1 0x20 MUL PUSH1 0x20 ADD ADD MLOAD PUSH1 0x40 MLOAD DUP4 PUSH4 0xFFFFFFFF AND PUSH1 0xE0 SHL DUP2 MSTORE PUSH1 0x4 ADD DUP1 DUP4 PUSH20 0xFFFFFFFFFFFFFFFFFFFFFFFFFFFFFFFFFFFFFFFF AND DUP2 MSTORE PUSH1 0x20 ADD DUP3 DUP2 MSTORE PUSH1 0x20 ADD SWAP3 POP POP POP PUSH1 0x20 PUSH1 0x40 MLOAD DUP1 DUP4 SUB DUP2 PUSH1 0x0 DUP8 DUP1 EXTCODESIZE ISZERO DUP1 ISZERO PUSH2 0x1933 JUMPI PUSH1 0x0 DUP1 REVERT JUMPDEST POP GAS CALL ISZERO DUP1 ISZERO PUSH2 0x1947 JUMPI RETURNDATASIZE PUSH1 0x0 DUP1 RETURNDATACOPY RETURNDATASIZE PUSH1 0x0 REVERT JUMPDEST POP POP POP POP PUSH1 0x40 MLOAD RETURNDATASIZE PUSH1 0x20 DUP2 LT ISZERO PUSH2 0x195D JUMPI PUSH1 0x0 DUP1 REVERT JUMPDEST POP MLOAD PUSH2 0x1965 JUMPI INVALID JUMPDEST PUSH2 0x19A4 DUP3 DUP8 DUP8 DUP1 DUP1 PUSH1 0x20 MUL PUSH1 0x20 ADD PUSH1 0x40 MLOAD SWAP1 DUP2 ADD PUSH1 0x40 MSTORE DUP1 SWAP4 SWAP3 SWAP2 SWAP1 DUP2 DUP2 MSTORE PUSH1 0x20 ADD DUP4 DUP4 PUSH1 0x20 MUL DUP1 DUP3 DUP5 CALLDATACOPY PUSH1 0x0 SWAP3 ADD SWAP2 SWAP1 SWAP2 MSTORE POP DUP10 SWAP3 POP PUSH2 0x2FE4 SWAP2 POP POP JUMP JUMPDEST POP SWAP6 SWAP5 POP POP POP POP POP JUMP JUMPDEST PUSH1 0x60 DUP2 TIMESTAMP DUP2 LT ISZERO PUSH2 0x1A20 JUMPI PUSH1 0x40 DUP1 MLOAD PUSH32 0x8C379A000000000000000000000000000000000000000000000000000000000 DUP2 MSTORE PUSH1 0x20 PUSH1 0x4 DUP3 ADD MSTORE PUSH1 0x1B PUSH1 0x24 DUP3 ADD MSTORE PUSH32 0x436166655377617056325632526F757465723A20455850495245440000000000 PUSH1 0x44 DUP3 ADD MSTORE SWAP1 MLOAD SWAP1 DUP2 SWAP1 SUB PUSH1 0x64 ADD SWAP1 REVERT JUMPDEST PUSH2 0x1A7E PUSH32 0x0 DUP10 DUP9 DUP9 DUP1 DUP1 PUSH1 0x20 MUL PUSH1 0x20 ADD PUSH1 0x40 MLOAD SWAP1 DUP2 ADD PUSH1 0x40 MSTORE DUP1 SWAP4 SWAP3 SWAP2 SWAP1 DUP2 DUP2 MSTORE PUSH1 0x20 ADD DUP4 DUP4 PUSH1 0x20 MUL DUP1 DUP3 DUP5 CALLDATACOPY PUSH1 0x0 SWAP3 ADD SWAP2 SWAP1 SWAP2 MSTORE POP PUSH2 0x3255 SWAP3 POP POP POP JUMP JUMPDEST SWAP2 POP DUP7 DUP3 PUSH1 0x0 DUP2 MLOAD DUP2 LT PUSH2 0x1A8E JUMPI INVALID JUMPDEST PUSH1 0x20 MUL PUSH1 0x20 ADD ADD MLOAD GT ISZERO PUSH2 0x12D1 JUMPI PUSH1 0x40 MLOAD PUSH32 0x8C379A000000000000000000000000000000000000000000000000000000000 DUP2 MSTORE PUSH1 0x4 ADD DUP1 DUP1 PUSH1 0x20 ADD DUP3 DUP2 SUB DUP3 MSTORE PUSH1 0x2A DUP2 MSTORE PUSH1 0x20 ADD DUP1 PUSH2 0x3EC2 PUSH1 0x2A SWAP2 CODECOPY PUSH1 0x40 ADD SWAP2 POP POP PUSH1 0x40 MLOAD DUP1 SWAP2 SUB SWAP1 REVERT JUMPDEST PUSH32 0x0 DUP2 JUMP JUMPDEST PUSH1 0x0 PUSH2 0x1B1E DUP5 DUP5 DUP5 PUSH2 0x3521 JUMP JUMPDEST SWAP5 SWAP4 POP POP POP POP JUMP JUMPDEST PUSH1 0x0 DUP1 DUP3 TIMESTAMP DUP2 LT ISZERO PUSH2 0x1B99 JUMPI PUSH1 0x40 DUP1 MLOAD PUSH32 0x8C379A000000000000000000000000000000000000000000000000000000000 DUP2 MSTORE PUSH1 0x20 PUSH1 0x4 DUP3 ADD MSTORE PUSH1 0x1B PUSH1 0x24 DUP3 ADD MSTORE PUSH32 0x436166655377617056325632526F757465723A20455850495245440000000000 PUSH1 0x44 DUP3 ADD MSTORE SWAP1 MLOAD SWAP1 DUP2 SWAP1 SUB PUSH1 0x64 ADD SWAP1 REVERT JUMPDEST PUSH1 0x0 PUSH2 0x1BC6 PUSH32 0x0 DUP13 DUP13 PUSH2 0x2D29 JUMP JUMPDEST PUSH1 0x40 DUP1 MLOAD PUSH32 0x23B872DD00000000000000000000000000000000000000000000000000000000 DUP2 MSTORE CALLER PUSH1 0x4 DUP3 ADD MSTORE PUSH20 0xFFFFFFFFFFFFFFFFFFFFFFFFFFFFFFFFFFFFFFFF DUP4 AND PUSH1 0x24 DUP3 ADD DUP2 SWAP1 MSTORE PUSH1 0x44 DUP3 ADD DUP14 SWAP1 MSTORE SWAP2 MLOAD SWAP3 SWAP4 POP SWAP1 SWAP2 PUSH4 0x23B872DD SWAP2 PUSH1 0x64 DUP1 DUP3 ADD SWAP3 PUSH1 0x20 SWAP3 SWAP1 SWAP2 SWAP1 DUP3 SWAP1 SUB ADD DUP2 PUSH1 0x0 DUP8 DUP1 EXTCODESIZE ISZERO DUP1 ISZERO PUSH2 0x1C47 JUMPI PUSH1 0x0 DUP1 REVERT JUMPDEST POP GAS CALL ISZERO DUP1 ISZERO PUSH2 0x1C5B JUMPI RETURNDATASIZE PUSH1 0x0 DUP1 RETURNDATACOPY RETURNDATASIZE PUSH1 0x0 REVERT JUMPDEST POP POP POP POP PUSH1 0x40 MLOAD RETURNDATASIZE PUSH1 0x20 DUP2 LT ISZERO PUSH2 0x1C71 JUMPI PUSH1 0x0 DUP1 REVERT JUMPDEST POP POP PUSH1 0x40 DUP1 MLOAD PUSH32 0x89AFCB4400000000000000000000000000000000000000000000000000000000 DUP2 MSTORE PUSH20 0xFFFFFFFFFFFFFFFFFFFFFFFFFFFFFFFFFFFFFFFF DUP9 DUP2 AND PUSH1 0x4 DUP4 ADD MSTORE DUP3 MLOAD PUSH1 0x0 SWAP4 DUP5 SWAP4 SWAP3 DUP7 AND SWAP3 PUSH4 0x89AFCB44 SWAP3 PUSH1 0x24 DUP1 DUP4 ADD SWAP4 SWAP3 DUP3 SWAP1 SUB ADD DUP2 DUP8 DUP8 DUP1 EXTCODESIZE ISZERO DUP1 ISZERO PUSH2 0x1CE4 JUMPI PUSH1 0x0 DUP1 REVERT JUMPDEST POP GAS CALL ISZERO DUP1 ISZERO PUSH2 0x1CF8 JUMPI RETURNDATASIZE PUSH1 0x0 DUP1 RETURNDATACOPY RETURNDATASIZE PUSH1 0x0 REVERT JUMPDEST POP POP POP POP PUSH1 0x40 MLOAD RETURNDATASIZE PUSH1 0x40 DUP2 LT ISZERO PUSH2 0x1D0E JUMPI PUSH1 0x0 DUP1 REVERT JUMPDEST POP DUP1 MLOAD PUSH1 0x20 SWAP1 SWAP2 ADD MLOAD SWAP1 SWAP3 POP SWAP1 POP PUSH1 0x0 PUSH2 0x1D28 DUP15 DUP15 PUSH2 0x35FB JUMP JUMPDEST POP SWAP1 POP DUP1 PUSH20 0xFFFFFFFFFFFFFFFFFFFFFFFFFFFFFFFFFFFFFFFF AND DUP15 PUSH20 0xFFFFFFFFFFFFFFFFFFFFFFFFFFFFFFFFFFFFFFFF AND EQ PUSH2 0x1D65 JUMPI DUP2 DUP4 PUSH2 0x1D68 JUMP JUMPDEST DUP3 DUP3 JUMPDEST SWAP1 SWAP8 POP SWAP6 POP DUP11 DUP8 LT ISZERO PUSH2 0x1DC6 JUMPI PUSH1 0x40 MLOAD PUSH32 0x8C379A000000000000000000000000000000000000000000000000000000000 DUP2 MSTORE PUSH1 0x4 ADD DUP1 DUP1 PUSH1 0x20 ADD DUP3 DUP2 SUB DUP3 MSTORE PUSH1 0x29 DUP2 MSTORE PUSH1 0x20 ADD DUP1 PUSH2 0x3FA5 PUSH1 0x29 SWAP2 CODECOPY PUSH1 0x40 ADD SWAP2 POP POP PUSH1 0x40 MLOAD DUP1 SWAP2 SUB SWAP1 REVERT JUMPDEST DUP10 DUP7 LT ISZERO PUSH2 0x1E1F JUMPI PUSH1 0x40 MLOAD PUSH32 0x8C379A000000000000000000000000000000000000000000000000000000000 DUP2 MSTORE PUSH1 0x4 ADD DUP1 DUP1 PUSH1 0x20 ADD DUP3 DUP2 SUB DUP3 MSTORE PUSH1 0x29 DUP2 MSTORE PUSH1 0x20 ADD DUP1 PUSH2 0x3E70 PUSH1 0x29 SWAP2 CODECOPY PUSH1 0x40 ADD SWAP2 POP POP PUSH1 0x40 MLOAD DUP1 SWAP2 SUB SWAP1 REVERT JUMPDEST POP POP POP POP POP SWAP8 POP SWAP8 SWAP6 POP POP POP POP POP POP JUMP JUMPDEST PUSH32 0x0 DUP2 JUMP JUMPDEST PUSH1 0x60 PUSH2 0x1048 PUSH32 0x0 DUP5 DUP5 PUSH2 0x2B8F JUMP JUMPDEST PUSH1 0x0 DUP1 PUSH1 0x0 PUSH2 0x1ED1 PUSH32 0x0 DUP15 PUSH32 0x0 PUSH2 0x2D29 JUMP JUMPDEST SWAP1 POP PUSH1 0x0 DUP8 PUSH2 0x1EE0 JUMPI DUP13 PUSH2 0x1F02 JUMP JUMPDEST PUSH32 0xFFFFFFFFFFFFFFFFFFFFFFFFFFFFFFFFFFFFFFFFFFFFFFFFFFFFFFFFFFFFFFFF JUMPDEST PUSH1 0x40 DUP1 MLOAD PUSH32 0xD505ACCF00000000000000000000000000000000000000000000000000000000 DUP2 MSTORE CALLER PUSH1 0x4 DUP3 ADD MSTORE ADDRESS PUSH1 0x24 DUP3 ADD MSTORE PUSH1 0x44 DUP2 ADD DUP4 SWAP1 MSTORE PUSH1 0x64 DUP2 ADD DUP13 SWAP1 MSTORE PUSH1 0xFF DUP11 AND PUSH1 0x84 DUP3 ADD MSTORE PUSH1 0xA4 DUP2 ADD DUP10 SWAP1 MSTORE PUSH1 0xC4 DUP2 ADD DUP9 SWAP1 MSTORE SWAP1 MLOAD SWAP2 SWAP3 POP PUSH20 0xFFFFFFFFFFFFFFFFFFFFFFFFFFFFFFFFFFFFFFFF DUP5 AND SWAP2 PUSH4 0xD505ACCF SWAP2 PUSH1 0xE4 DUP1 DUP3 ADD SWAP3 PUSH1 0x0 SWAP3 SWAP1 SWAP2 SWAP1 DUP3 SWAP1 SUB ADD DUP2 DUP4 DUP8 DUP1 EXTCODESIZE ISZERO DUP1 ISZERO PUSH2 0x1F9E JUMPI PUSH1 0x0 DUP1 REVERT JUMPDEST POP GAS CALL ISZERO DUP1 ISZERO PUSH2 0x1FB2 JUMPI RETURNDATASIZE PUSH1 0x0 DUP1 RETURNDATACOPY RETURNDATASIZE PUSH1 0x0 REVERT JUMPDEST POP POP POP POP PUSH2 0x1FC4 DUP15 DUP15 DUP15 DUP15 DUP15 DUP15 PUSH2 0xAB0 JUMP JUMPDEST SWAP1 SWAP16 SWAP1 SWAP15 POP SWAP13 POP POP POP POP POP POP POP POP POP POP POP POP POP JUMP JUMPDEST PUSH1 0x0 DUP1 PUSH1 0x0 DUP4 TIMESTAMP DUP2 LT ISZERO PUSH2 0x204E JUMPI PUSH1 0x40 DUP1 MLOAD PUSH32 0x8C379A000000000000000000000000000000000000000000000000000000000 DUP2 MSTORE PUSH1 0x20 PUSH1 0x4 DUP3 ADD MSTORE PUSH1 0x1B PUSH1 0x24 DUP3 ADD MSTORE PUSH32 0x436166655377617056325632526F757465723A20455850495245440000000000 PUSH1 0x44 DUP3 ADD MSTORE SWAP1 MLOAD SWAP1 DUP2 SWAP1 SUB PUSH1 0x64 ADD SWAP1 REVERT JUMPDEST PUSH2 0x205C DUP13 DUP13 DUP13 DUP13 DUP13 DUP13 PUSH2 0x374E JUMP JUMPDEST SWAP1 SWAP5 POP SWAP3 POP PUSH1 0x0 PUSH2 0x208E PUSH32 0x0 DUP15 DUP15 PUSH2 0x2D29 JUMP JUMPDEST SWAP1 POP PUSH2 0x209C DUP14 CALLER DUP4 DUP9 PUSH2 0x2E14 JUMP JUMPDEST PUSH2 0x20A8 DUP13 CALLER DUP4 DUP8 PUSH2 0x2E14 JUMP JUMPDEST DUP1 PUSH20 0xFFFFFFFFFFFFFFFFFFFFFFFFFFFFFFFFFFFFFFFF AND PUSH4 0x6A627842 DUP9 PUSH1 0x40 MLOAD DUP3 PUSH4 0xFFFFFFFF AND PUSH1 0xE0 SHL DUP2 MSTORE PUSH1 0x4 ADD DUP1 DUP3 PUSH20 0xFFFFFFFFFFFFFFFFFFFFFFFFFFFFFFFFFFFFFFFF AND DUP2 MSTORE PUSH1 0x20 ADD SWAP2 POP POP PUSH1 0x20 PUSH1 0x40 MLOAD DUP1 DUP4 SUB DUP2 PUSH1 0x0 DUP8 DUP1 EXTCODESIZE ISZERO DUP1 ISZERO PUSH2 0x2111 JUMPI PUSH1 0x0 DUP1 REVERT JUMPDEST POP GAS CALL ISZERO DUP1 ISZERO PUSH2 0x2125 JUMPI RETURNDATASIZE PUSH1 0x0 DUP1 RETURNDATACOPY RETURNDATASIZE PUSH1 0x0 REVERT JUMPDEST POP POP POP POP PUSH1 0x40 MLOAD RETURNDATASIZE PUSH1 0x20 DUP2 LT ISZERO PUSH2 0x213B JUMPI PUSH1 0x0 DUP1 REVERT JUMPDEST POP MLOAD SWAP5 SWAP14 SWAP4 SWAP13 POP SWAP4 SWAP11 POP SWAP2 SWAP9 POP POP POP POP POP POP POP POP POP JUMP JUMPDEST PUSH1 0x0 DUP1 PUSH1 0x0 DUP4 TIMESTAMP DUP2 LT ISZERO PUSH2 0x21C7 JUMPI PUSH1 0x40 DUP1 MLOAD PUSH32 0x8C379A000000000000000000000000000000000000000000000000000000000 DUP2 MSTORE PUSH1 0x20 PUSH1 0x4 DUP3 ADD MSTORE PUSH1 0x1B PUSH1 0x24 DUP3 ADD MSTORE PUSH32 0x436166655377617056325632526F757465723A20455850495245440000000000 PUSH1 0x44 DUP3 ADD MSTORE SWAP1 MLOAD SWAP1 DUP2 SWAP1 SUB PUSH1 0x64 ADD SWAP1 REVERT JUMPDEST PUSH2 0x21F5 DUP11 PUSH32 0x0 DUP12 CALLVALUE DUP13 DUP13 PUSH2 0x374E JUMP JUMPDEST SWAP1 SWAP5 POP SWAP3 POP PUSH1 0x0 PUSH2 0x2247 PUSH32 0x0 DUP13 PUSH32 0x0 PUSH2 0x2D29 JUMP JUMPDEST SWAP1 POP PUSH2 0x2255 DUP12 CALLER DUP4 DUP9 PUSH2 0x2E14 JUMP JUMPDEST PUSH32 0x0 PUSH20 0xFFFFFFFFFFFFFFFFFFFFFFFFFFFFFFFFFFFFFFFF AND PUSH4 0xD0E30DB0 DUP6 PUSH1 0x40 MLOAD DUP3 PUSH4 0xFFFFFFFF AND PUSH1 0xE0 SHL DUP2 MSTORE PUSH1 0x4 ADD PUSH1 0x0 PUSH1 0x40 MLOAD DUP1 DUP4 SUB DUP2 DUP6 DUP9 DUP1 EXTCODESIZE ISZERO DUP1 ISZERO PUSH2 0x22BD JUMPI PUSH1 0x0 DUP1 REVERT JUMPDEST POP GAS CALL ISZERO DUP1 ISZERO PUSH2 0x22D1 JUMPI RETURNDATASIZE PUSH1 0x0 DUP1 RETURNDATACOPY RETURNDATASIZE PUSH1 0x0 REVERT JUMPDEST POP POP POP POP POP PUSH32 0x0 PUSH20 0xFFFFFFFFFFFFFFFFFFFFFFFFFFFFFFFFFFFFFFFF AND PUSH4 0xA9059CBB DUP3 DUP7 PUSH1 0x40 MLOAD DUP4 PUSH4 0xFFFFFFFF AND PUSH1 0xE0 SHL DUP2 MSTORE PUSH1 0x4 ADD DUP1 DUP4 PUSH20 0xFFFFFFFFFFFFFFFFFFFFFFFFFFFFFFFFFFFFFFFF AND DUP2 MSTORE PUSH1 0x20 ADD DUP3 DUP2 MSTORE PUSH1 0x20 ADD SWAP3 POP POP POP PUSH1 0x20 PUSH1 0x40 MLOAD DUP1 DUP4 SUB DUP2 PUSH1 0x0 DUP8 DUP1 EXTCODESIZE ISZERO DUP1 ISZERO PUSH2 0x2367 JUMPI PUSH1 0x0 DUP1 REVERT JUMPDEST POP GAS CALL ISZERO DUP1 ISZERO PUSH2 0x237B JUMPI RETURNDATASIZE PUSH1 0x0 DUP1 RETURNDATACOPY RETURNDATASIZE PUSH1 0x0 REVERT JUMPDEST POP POP POP POP PUSH1 0x40 MLOAD RETURNDATASIZE PUSH1 0x20 DUP2 LT ISZERO PUSH2 0x2391 JUMPI PUSH1 0x0 DUP1 REVERT JUMPDEST POP MLOAD PUSH2 0x2399 JUMPI INVALID JUMPDEST DUP1 PUSH20 0xFFFFFFFFFFFFFFFFFFFFFFFFFFFFFFFFFFFFFFFF AND PUSH4 0x6A627842 DUP9 PUSH1 0x40 MLOAD DUP3 PUSH4 0xFFFFFFFF AND PUSH1 0xE0 SHL DUP2 MSTORE PUSH1 0x4 ADD DUP1 DUP3 PUSH20 0xFFFFFFFFFFFFFFFFFFFFFFFFFFFFFFFFFFFFFFFF AND DUP2 MSTORE PUSH1 0x20 ADD SWAP2 POP POP PUSH1 0x20 PUSH1 0x40 MLOAD DUP1 DUP4 SUB DUP2 PUSH1 0x0 DUP8 DUP1 EXTCODESIZE ISZERO DUP1 ISZERO PUSH2 0x2402 JUMPI PUSH1 0x0 DUP1 REVERT JUMPDEST POP GAS CALL ISZERO DUP1 ISZERO PUSH2 0x2416 JUMPI RETURNDATASIZE PUSH1 0x0 DUP1 RETURNDATACOPY RETURNDATASIZE PUSH1 0x0 REVERT JUMPDEST POP POP POP POP PUSH1 0x40 MLOAD RETURNDATASIZE PUSH1 0x20 DUP2 LT ISZERO PUSH2 0x242C JUMPI PUSH1 0x0 DUP1 REVERT JUMPDEST POP MLOAD SWAP3 POP CALLVALUE DUP5 LT ISZERO PUSH2 0x2444 JUMPI PUSH2 0x2444 CALLER DUP6 CALLVALUE SUB PUSH2 0x2A52 JUMP JUMPDEST POP POP SWAP7 POP SWAP7 POP SWAP7 SWAP4 POP POP POP POP JUMP JUMPDEST PUSH1 0x60 DUP2 TIMESTAMP DUP2 LT ISZERO PUSH2 0x24C4 JUMPI PUSH1 0x40 DUP1 MLOAD PUSH32 0x8C379A000000000000000000000000000000000000000000000000000000000 DUP2 MSTORE PUSH1 0x20 PUSH1 0x4 DUP3 ADD MSTORE PUSH1 0x1B PUSH1 0x24 DUP3 ADD MSTORE PUSH32 0x436166655377617056325632526F757465723A20455850495245440000000000 PUSH1 0x44 DUP3 ADD MSTORE SWAP1 MLOAD SWAP1 DUP2 SWAP1 SUB PUSH1 0x64 ADD SWAP1 REVERT JUMPDEST PUSH32 0x0 PUSH20 0xFFFFFFFFFFFFFFFFFFFFFFFFFFFFFFFFFFFFFFFF AND DUP7 DUP7 PUSH1 0x0 DUP2 DUP2 LT PUSH2 0x2508 JUMPI INVALID JUMPDEST SWAP1 POP PUSH1 0x20 MUL ADD CALLDATALOAD PUSH20 0xFFFFFFFFFFFFFFFFFFFFFFFFFFFFFFFFFFFFFFFF AND PUSH20 0xFFFFFFFFFFFFFFFFFFFFFFFFFFFFFFFFFFFFFFFF AND EQ PUSH2 0x25A7 JUMPI PUSH1 0x40 DUP1 MLOAD PUSH32 0x8C379A000000000000000000000000000000000000000000000000000000000 DUP2 MSTORE PUSH1 0x20 PUSH1 0x4 DUP3 ADD DUP2 SWAP1 MSTORE PUSH1 0x24 DUP3 ADD MSTORE PUSH32 0x436166655377617056325632526F757465723A20494E56414C49445F50415448 PUSH1 0x44 DUP3 ADD MSTORE SWAP1 MLOAD SWAP1 DUP2 SWAP1 SUB PUSH1 0x64 ADD SWAP1 REVERT JUMPDEST PUSH2 0x2605 PUSH32 0x0 DUP9 DUP9 DUP9 DUP1 DUP1 PUSH1 0x20 MUL PUSH1 0x20 ADD PUSH1 0x40 MLOAD SWAP1 DUP2 ADD PUSH1 0x40 MSTORE DUP1 SWAP4 SWAP3 SWAP2 SWAP1 DUP2 DUP2 MSTORE PUSH1 0x20 ADD DUP4 DUP4 PUSH1 0x20 MUL DUP1 DUP3 DUP5 CALLDATACOPY PUSH1 0x0 SWAP3 ADD SWAP2 SWAP1 SWAP2 MSTORE POP PUSH2 0x3255 SWAP3 POP POP POP JUMP JUMPDEST SWAP2 POP CALLVALUE DUP3 PUSH1 0x0 DUP2 MLOAD DUP2 LT PUSH2 0x2615 JUMPI INVALID JUMPDEST PUSH1 0x20 MUL PUSH1 0x20 ADD ADD MLOAD GT ISZERO PUSH2 0x2674 JUMPI PUSH1 0x40 MLOAD PUSH32 0x8C379A000000000000000000000000000000000000000000000000000000000 DUP2 MSTORE PUSH1 0x4 ADD DUP1 DUP1 PUSH1 0x20 ADD DUP3 DUP2 SUB DUP3 MSTORE PUSH1 0x2A DUP2 MSTORE PUSH1 0x20 ADD DUP1 PUSH2 0x3EC2 PUSH1 0x2A SWAP2 CODECOPY PUSH1 0x40 ADD SWAP2 POP POP PUSH1 0x40 MLOAD DUP1 SWAP2 SUB SWAP1 REVERT JUMPDEST PUSH32 0x0 PUSH20 0xFFFFFFFFFFFFFFFFFFFFFFFFFFFFFFFFFFFFFFFF AND PUSH4 0xD0E30DB0 DUP4 PUSH1 0x0 DUP2 MLOAD DUP2 LT PUSH2 0x26BD JUMPI INVALID JUMPDEST PUSH1 0x20 MUL PUSH1 0x20 ADD ADD MLOAD PUSH1 0x40 MLOAD DUP3 PUSH4 0xFFFFFFFF AND PUSH1 0xE0 SHL DUP2 MSTORE PUSH1 0x4 ADD PUSH1 0x0 PUSH1 0x40 MLOAD DUP1 DUP4 SUB DUP2 DUP6 DUP9 DUP1 EXTCODESIZE ISZERO DUP1 ISZERO PUSH2 0x26F0 JUMPI PUSH1 0x0 DUP1 REVERT JUMPDEST POP GAS CALL ISZERO DUP1 ISZERO PUSH2 0x2704 JUMPI RETURNDATASIZE PUSH1 0x0 DUP1 RETURNDATACOPY RETURNDATASIZE PUSH1 0x0 REVERT JUMPDEST POP POP POP POP POP PUSH32 0x0 PUSH20 0xFFFFFFFFFFFFFFFFFFFFFFFFFFFFFFFFFFFFFFFF AND PUSH4 0xA9059CBB PUSH2 0x2776 PUSH32 0x0 DUP10 DUP10 PUSH1 0x0 DUP2 DUP2 LT PUSH2 0x18A1 JUMPI INVALID JUMPDEST DUP5 PUSH1 0x0 DUP2 MLOAD DUP2 LT PUSH2 0x2783 JUMPI INVALID JUMPDEST PUSH1 0x20 MUL PUSH1 0x20 ADD ADD MLOAD PUSH1 0x40 MLOAD DUP4 PUSH4 0xFFFFFFFF AND PUSH1 0xE0 SHL DUP2 MSTORE PUSH1 0x4 ADD DUP1 DUP4 PUSH20 0xFFFFFFFFFFFFFFFFFFFFFFFFFFFFFFFFFFFFFFFF AND DUP2 MSTORE PUSH1 0x20 ADD DUP3 DUP2 MSTORE PUSH1 0x20 ADD SWAP3 POP POP POP PUSH1 0x20 PUSH1 0x40 MLOAD DUP1 DUP4 SUB DUP2 PUSH1 0x0 DUP8 DUP1 EXTCODESIZE ISZERO DUP1 ISZERO PUSH2 0x27DE JUMPI PUSH1 0x0 DUP1 REVERT JUMPDEST POP GAS CALL ISZERO DUP1 ISZERO PUSH2 0x27F2 JUMPI RETURNDATASIZE PUSH1 0x0 DUP1 RETURNDATACOPY RETURNDATASIZE PUSH1 0x0 REVERT JUMPDEST POP POP POP POP PUSH1 0x40 MLOAD RETURNDATASIZE PUSH1 0x20 DUP2 LT ISZERO PUSH2 0x2808 JUMPI PUSH1 0x0 DUP1 REVERT JUMPDEST POP MLOAD PUSH2 0x2810 JUMPI INVALID JUMPDEST PUSH2 0x284F DUP3 DUP8 DUP8 DUP1 DUP1 PUSH1 0x20 MUL PUSH1 0x20 ADD PUSH1 0x40 MLOAD SWAP1 DUP2 ADD PUSH1 0x40 MSTORE DUP1 SWAP4 SWAP3 SWAP2 SWAP1 DUP2 DUP2 MSTORE PUSH1 0x20 ADD DUP4 DUP4 PUSH1 0x20 MUL DUP1 DUP3 DUP5 CALLDATACOPY PUSH1 0x0 SWAP3 ADD SWAP2 SWAP1 SWAP2 MSTORE POP DUP10 SWAP3 POP PUSH2 0x2FE4 SWAP2 POP POP JUMP JUMPDEST DUP2 PUSH1 0x0 DUP2 MLOAD DUP2 LT PUSH2 0x285C JUMPI INVALID JUMPDEST PUSH1 0x20 MUL PUSH1 0x20 ADD ADD MLOAD CALLVALUE GT ISZERO PUSH2 0x19A4 JUMPI PUSH2 0x19A4 CALLER DUP4 PUSH1 0x0 DUP2 MLOAD DUP2 LT PUSH2 0x287C JUMPI INVALID JUMPDEST PUSH1 0x20 MUL PUSH1 0x20 ADD ADD MLOAD CALLVALUE SUB PUSH2 0x2A52 JUMP JUMPDEST PUSH1 0x40 DUP1 MLOAD PUSH20 0xFFFFFFFFFFFFFFFFFFFFFFFFFFFFFFFFFFFFFFFF DUP5 DUP2 AND PUSH1 0x24 DUP4 ADD MSTORE PUSH1 0x44 DUP1 DUP4 ADD DUP6 SWAP1 MSTORE DUP4 MLOAD DUP1 DUP5 SUB SWAP1 SWAP2 ADD DUP2 MSTORE PUSH1 0x64 SWAP1 SWAP3 ADD DUP4 MSTORE PUSH1 0x20 DUP3 ADD DUP1 MLOAD PUSH28 0xFFFFFFFFFFFFFFFFFFFFFFFFFFFFFFFFFFFFFFFFFFFFFFFFFFFFFFFF AND PUSH32 0xA9059CBB00000000000000000000000000000000000000000000000000000000 OR DUP2 MSTORE SWAP3 MLOAD DUP3 MLOAD PUSH1 0x0 SWAP5 PUSH1 0x60 SWAP5 SWAP4 DUP10 AND SWAP4 SWAP3 SWAP2 DUP3 SWAP2 SWAP1 DUP1 DUP4 DUP4 JUMPDEST PUSH1 0x20 DUP4 LT PUSH2 0x2961 JUMPI DUP1 MLOAD DUP3 MSTORE PUSH32 0xFFFFFFFFFFFFFFFFFFFFFFFFFFFFFFFFFFFFFFFFFFFFFFFFFFFFFFFFFFFFFFE0 SWAP1 SWAP3 ADD SWAP2 PUSH1 0x20 SWAP2 DUP3 ADD SWAP2 ADD PUSH2 0x2924 JUMP JUMPDEST PUSH1 0x1 DUP4 PUSH1 0x20 SUB PUSH2 0x100 EXP SUB DUP1 NOT DUP3 MLOAD AND DUP2 DUP5 MLOAD AND DUP1 DUP3 OR DUP6 MSTORE POP POP POP POP POP POP SWAP1 POP ADD SWAP2 POP POP PUSH1 0x0 PUSH1 0x40 MLOAD DUP1 DUP4 SUB DUP2 PUSH1 0x0 DUP7 GAS CALL SWAP2 POP POP RETURNDATASIZE DUP1 PUSH1 0x0 DUP2 EQ PUSH2 0x29C3 JUMPI PUSH1 0x40 MLOAD SWAP2 POP PUSH1 0x1F NOT PUSH1 0x3F RETURNDATASIZE ADD AND DUP3 ADD PUSH1 0x40 MSTORE RETURNDATASIZE DUP3 MSTORE RETURNDATASIZE PUSH1 0x0 PUSH1 0x20 DUP5 ADD RETURNDATACOPY PUSH2 0x29C8 JUMP JUMPDEST PUSH1 0x60 SWAP2 POP JUMPDEST POP SWAP2 POP SWAP2 POP DUP2 DUP1 ISZERO PUSH2 0x29F6 JUMPI POP DUP1 MLOAD ISZERO DUP1 PUSH2 0x29F6 JUMPI POP DUP1 DUP1 PUSH1 0x20 ADD SWAP1 MLOAD PUSH1 0x20 DUP2 LT ISZERO PUSH2 0x29F3 JUMPI PUSH1 0x0 DUP1 REVERT JUMPDEST POP MLOAD JUMPDEST PUSH2 0x2A4B JUMPI PUSH1 0x40 MLOAD PUSH32 0x8C379A000000000000000000000000000000000000000000000000000000000 DUP2 MSTORE PUSH1 0x4 ADD DUP1 DUP1 PUSH1 0x20 ADD DUP3 DUP2 SUB DUP3 MSTORE PUSH1 0x2D DUP2 MSTORE PUSH1 0x20 ADD DUP1 PUSH2 0x4021 PUSH1 0x2D SWAP2 CODECOPY PUSH1 0x40 ADD SWAP2 POP POP PUSH1 0x40 MLOAD DUP1 SWAP2 SUB SWAP1 REVERT JUMPDEST POP POP POP POP POP JUMP JUMPDEST PUSH1 0x40 DUP1 MLOAD PUSH1 0x0 DUP1 DUP3 MSTORE PUSH1 0x20 DUP3 ADD SWAP1 SWAP3 MSTORE PUSH20 0xFFFFFFFFFFFFFFFFFFFFFFFFFFFFFFFFFFFFFFFF DUP5 AND SWAP1 DUP4 SWAP1 PUSH1 0x40 MLOAD DUP1 DUP3 DUP1 MLOAD SWAP1 PUSH1 0x20 ADD SWAP1 DUP1 DUP4 DUP4 JUMPDEST PUSH1 0x20 DUP4 LT PUSH2 0x2AC9 JUMPI DUP1 MLOAD DUP3 MSTORE PUSH32 0xFFFFFFFFFFFFFFFFFFFFFFFFFFFFFFFFFFFFFFFFFFFFFFFFFFFFFFFFFFFFFFE0 SWAP1 SWAP3 ADD SWAP2 PUSH1 0x20 SWAP2 DUP3 ADD SWAP2 ADD PUSH2 0x2A8C JUMP JUMPDEST PUSH1 0x1 DUP4 PUSH1 0x20 SUB PUSH2 0x100 EXP SUB DUP1 NOT DUP3 MLOAD AND DUP2 DUP5 MLOAD AND DUP1 DUP3 OR DUP6 MSTORE POP POP POP POP POP POP SWAP1 POP ADD SWAP2 POP POP PUSH1 0x0 PUSH1 0x40 MLOAD DUP1 DUP4 SUB DUP2 DUP6 DUP8 GAS CALL SWAP3 POP POP POP RETURNDATASIZE DUP1 PUSH1 0x0 DUP2 EQ PUSH2 0x2B2B JUMPI PUSH1 0x40 MLOAD SWAP2 POP PUSH1 0x1F NOT PUSH1 0x3F RETURNDATASIZE ADD AND DUP3 ADD PUSH1 0x40 MSTORE RETURNDATASIZE DUP3 MSTORE RETURNDATASIZE PUSH1 0x0 PUSH1 0x20 DUP5 ADD RETURNDATACOPY PUSH2 0x2B30 JUMP JUMPDEST PUSH1 0x60 SWAP2 POP JUMPDEST POP POP SWAP1 POP DUP1 PUSH2 0x2B8A JUMPI PUSH1 0x40 MLOAD PUSH32 0x8C379A000000000000000000000000000000000000000000000000000000000 DUP2 MSTORE PUSH1 0x4 ADD DUP1 DUP1 PUSH1 0x20 ADD DUP3 DUP2 SUB DUP3 MSTORE PUSH1 0x34 DUP2 MSTORE PUSH1 0x20 ADD DUP1 PUSH2 0x3F4B PUSH1 0x34 SWAP2 CODECOPY PUSH1 0x40 ADD SWAP2 POP POP PUSH1 0x40 MLOAD DUP1 SWAP2 SUB SWAP1 REVERT JUMPDEST POP POP POP JUMP JUMPDEST PUSH1 0x60 PUSH1 0x2 DUP3 MLOAD LT ISZERO PUSH2 0x2C02 JUMPI PUSH1 0x40 DUP1 MLOAD PUSH32 0x8C379A000000000000000000000000000000000000000000000000000000000 DUP2 MSTORE PUSH1 0x20 PUSH1 0x4 DUP3 ADD MSTORE PUSH1 0x1F PUSH1 0x24 DUP3 ADD MSTORE PUSH32 0x436166655377617056324C6962726172793A20494E56414C49445F5041544800 PUSH1 0x44 DUP3 ADD MSTORE SWAP1 MLOAD SWAP1 DUP2 SWAP1 SUB PUSH1 0x64 ADD SWAP1 REVERT JUMPDEST DUP2 MLOAD PUSH8 0xFFFFFFFFFFFFFFFF DUP2 GT DUP1 ISZERO PUSH2 0x2C1A JUMPI PUSH1 0x0 DUP1 REVERT JUMPDEST POP PUSH1 0x40 MLOAD SWAP1 DUP1 DUP3 MSTORE DUP1 PUSH1 0x20 MUL PUSH1 0x20 ADD DUP3 ADD PUSH1 0x40 MSTORE DUP1 ISZERO PUSH2 0x2C44 JUMPI DUP2 PUSH1 0x20 ADD PUSH1 0x20 DUP3 MUL DUP1 CALLDATASIZE DUP4 CALLDATACOPY ADD SWAP1 POP JUMPDEST POP SWAP1 POP DUP3 DUP2 PUSH1 0x0 DUP2 MLOAD DUP2 LT PUSH2 0x2C55 JUMPI INVALID JUMPDEST PUSH1 0x20 MUL PUSH1 0x20 ADD ADD DUP2 DUP2 MSTORE POP POP PUSH1 0x0 JUMPDEST PUSH1 0x1 DUP4 MLOAD SUB DUP2 LT ISZERO PUSH2 0x2D21 JUMPI PUSH1 0x0 DUP1 PUSH2 0x2CA7 DUP8 DUP7 DUP6 DUP2 MLOAD DUP2 LT PUSH2 0x2C83 JUMPI INVALID JUMPDEST PUSH1 0x20 MUL PUSH1 0x20 ADD ADD MLOAD DUP8 DUP7 PUSH1 0x1 ADD DUP2 MLOAD DUP2 LT PUSH2 0x2C9A JUMPI INVALID JUMPDEST PUSH1 0x20 MUL PUSH1 0x20 ADD ADD MLOAD PUSH2 0x3A7B JUMP JUMPDEST SWAP2 POP SWAP2 POP PUSH2 0x2CFD DUP5 DUP5 DUP2 MLOAD DUP2 LT PUSH2 0x2CBA JUMPI INVALID JUMPDEST PUSH1 0x20 MUL PUSH1 0x20 ADD ADD MLOAD DUP4 DUP4 PUSH2 0x2CF8 DUP12 DUP11 DUP10 DUP2 MLOAD DUP2 LT PUSH2 0x2CD4 JUMPI INVALID JUMPDEST PUSH1 0x20 MUL PUSH1 0x20 ADD ADD MLOAD DUP12 DUP11 PUSH1 0x1 ADD DUP2 MLOAD DUP2 LT PUSH2 0x2CEB JUMPI INVALID JUMPDEST PUSH1 0x20 MUL PUSH1 0x20 ADD ADD MLOAD PUSH2 0x3B63 JUMP JUMPDEST PUSH2 0x340A JUMP JUMPDEST DUP5 DUP5 PUSH1 0x1 ADD DUP2 MLOAD DUP2 LT PUSH2 0x2D0C JUMPI INVALID JUMPDEST PUSH1 0x20 SWAP1 DUP2 MUL SWAP2 SWAP1 SWAP2 ADD ADD MSTORE POP POP PUSH1 0x1 ADD PUSH2 0x2C64 JUMP JUMPDEST POP SWAP4 SWAP3 POP POP POP JUMP JUMPDEST PUSH1 0x0 DUP1 PUSH1 0x0 PUSH2 0x2D38 DUP6 DUP6 PUSH2 0x35FB JUMP JUMPDEST PUSH1 0x40 DUP1 MLOAD PUSH32 0xFFFFFFFFFFFFFFFFFFFFFFFFFFFFFFFFFFFFFFFF000000000000000000000000 PUSH1 0x60 SWAP5 DUP6 SHL DUP2 AND PUSH1 0x20 DUP1 DUP5 ADD SWAP2 SWAP1 SWAP2 MSTORE SWAP4 DUP6 SHL DUP2 AND PUSH1 0x34 DUP4 ADD MSTORE DUP3 MLOAD PUSH1 0x28 DUP2 DUP5 SUB ADD DUP2 MSTORE PUSH1 0x48 DUP4 ADD DUP5 MSTORE DUP1 MLOAD SWAP1 DUP6 ADD KECCAK256 PUSH32 0xFF00000000000000000000000000000000000000000000000000000000000000 PUSH1 0x68 DUP5 ADD MSTORE SWAP11 SWAP1 SWAP5 SHL SWAP1 SWAP4 AND PUSH1 0x69 DUP5 ADD MSTORE PUSH1 0x7D DUP4 ADD SWAP9 SWAP1 SWAP9 MSTORE PUSH32 0xDA11640D332A21CE5325B845AEB1A6882FAB06577A92FEAADE1B60DD77CAEDF1 PUSH1 0x9D DUP1 DUP5 ADD SWAP2 SWAP1 SWAP2 MSTORE DUP9 MLOAD DUP1 DUP5 SUB SWAP1 SWAP2 ADD DUP2 MSTORE PUSH1 0xBD SWAP1 SWAP3 ADD SWAP1 SWAP8 MSTORE DUP1 MLOAD SWAP7 ADD SWAP6 SWAP1 SWAP6 KECCAK256 SWAP6 SWAP5 POP POP POP POP POP JUMP JUMPDEST PUSH1 0x40 DUP1 MLOAD PUSH20 0xFFFFFFFFFFFFFFFFFFFFFFFFFFFFFFFFFFFFFFFF DUP6 DUP2 AND PUSH1 0x24 DUP4 ADD MSTORE DUP5 DUP2 AND PUSH1 0x44 DUP4 ADD MSTORE PUSH1 0x64 DUP1 DUP4 ADD DUP6 SWAP1 MSTORE DUP4 MLOAD DUP1 DUP5 SUB SWAP1 SWAP2 ADD DUP2 MSTORE PUSH1 0x84 SWAP1 SWAP3 ADD DUP4 MSTORE PUSH1 0x20 DUP3 ADD DUP1 MLOAD PUSH28 0xFFFFFFFFFFFFFFFFFFFFFFFFFFFFFFFFFFFFFFFFFFFFFFFFFFFFFFFF AND PUSH32 0x23B872DD00000000000000000000000000000000000000000000000000000000 OR DUP2 MSTORE SWAP3 MLOAD DUP3 MLOAD PUSH1 0x0 SWAP5 PUSH1 0x60 SWAP5 SWAP4 DUP11 AND SWAP4 SWAP3 SWAP2 DUP3 SWAP2 SWAP1 DUP1 DUP4 DUP4 JUMPDEST PUSH1 0x20 DUP4 LT PUSH2 0x2EF2 JUMPI DUP1 MLOAD DUP3 MSTORE PUSH32 0xFFFFFFFFFFFFFFFFFFFFFFFFFFFFFFFFFFFFFFFFFFFFFFFFFFFFFFFFFFFFFFE0 SWAP1 SWAP3 ADD SWAP2 PUSH1 0x20 SWAP2 DUP3 ADD SWAP2 ADD PUSH2 0x2EB5 JUMP JUMPDEST PUSH1 0x1 DUP4 PUSH1 0x20 SUB PUSH2 0x100 EXP SUB DUP1 NOT DUP3 MLOAD AND DUP2 DUP5 MLOAD AND DUP1 DUP3 OR DUP6 MSTORE POP POP POP POP POP POP SWAP1 POP ADD SWAP2 POP POP PUSH1 0x0 PUSH1 0x40 MLOAD DUP1 DUP4 SUB DUP2 PUSH1 0x0 DUP7 GAS CALL SWAP2 POP POP RETURNDATASIZE DUP1 PUSH1 0x0 DUP2 EQ PUSH2 0x2F54 JUMPI PUSH1 0x40 MLOAD SWAP2 POP PUSH1 0x1F NOT PUSH1 0x3F RETURNDATASIZE ADD AND DUP3 ADD PUSH1 0x40 MSTORE RETURNDATASIZE DUP3 MSTORE RETURNDATASIZE PUSH1 0x0 PUSH1 0x20 DUP5 ADD RETURNDATACOPY PUSH2 0x2F59 JUMP JUMPDEST PUSH1 0x60 SWAP2 POP JUMPDEST POP SWAP2 POP SWAP2 POP DUP2 DUP1 ISZERO PUSH2 0x2F87 JUMPI POP DUP1 MLOAD ISZERO DUP1 PUSH2 0x2F87 JUMPI POP DUP1 DUP1 PUSH1 0x20 ADD SWAP1 MLOAD PUSH1 0x20 DUP2 LT ISZERO PUSH2 0x2F84 JUMPI PUSH1 0x0 DUP1 REVERT JUMPDEST POP MLOAD JUMPDEST PUSH2 0x2FDC JUMPI PUSH1 0x40 MLOAD PUSH32 0x8C379A000000000000000000000000000000000000000000000000000000000 DUP2 MSTORE PUSH1 0x4 ADD DUP1 DUP1 PUSH1 0x20 ADD DUP3 DUP2 SUB DUP3 MSTORE PUSH1 0x31 DUP2 MSTORE PUSH1 0x20 ADD DUP1 PUSH2 0x3F1A PUSH1 0x31 SWAP2 CODECOPY PUSH1 0x40 ADD SWAP2 POP POP PUSH1 0x40 MLOAD DUP1 SWAP2 SUB SWAP1 REVERT JUMPDEST POP POP POP POP POP POP JUMP JUMPDEST PUSH1 0x0 JUMPDEST PUSH1 0x1 DUP4 MLOAD SUB DUP2 LT ISZERO PUSH2 0x324F JUMPI PUSH1 0x0 DUP1 DUP5 DUP4 DUP2 MLOAD DUP2 LT PUSH2 0x3002 JUMPI INVALID JUMPDEST PUSH1 0x20 MUL PUSH1 0x20 ADD ADD MLOAD DUP6 DUP5 PUSH1 0x1 ADD DUP2 MLOAD DUP2 LT PUSH2 0x3019 JUMPI INVALID JUMPDEST PUSH1 0x20 MUL PUSH1 0x20 ADD ADD MLOAD SWAP2 POP SWAP2 POP PUSH1 0x0 PUSH2 0x3031 DUP4 DUP4 PUSH2 0x35FB JUMP JUMPDEST POP SWAP1 POP PUSH1 0x0 DUP8 DUP6 PUSH1 0x1 ADD DUP2 MLOAD DUP2 LT PUSH2 0x3045 JUMPI INVALID JUMPDEST PUSH1 0x20 MUL PUSH1 0x20 ADD ADD MLOAD SWAP1 POP PUSH1 0x0 DUP1 DUP4 PUSH20 0xFFFFFFFFFFFFFFFFFFFFFFFFFFFFFFFFFFFFFFFF AND DUP7 PUSH20 0xFFFFFFFFFFFFFFFFFFFFFFFFFFFFFFFFFFFFFFFF AND EQ PUSH2 0x308D JUMPI DUP3 PUSH1 0x0 PUSH2 0x3091 JUMP JUMPDEST PUSH1 0x0 DUP4 JUMPDEST SWAP2 POP SWAP2 POP PUSH1 0x0 PUSH1 0x2 DUP11 MLOAD SUB DUP9 LT PUSH2 0x30A8 JUMPI DUP9 PUSH2 0x30E9 JUMP JUMPDEST PUSH2 0x30E9 PUSH32 0x0 DUP8 DUP13 DUP12 PUSH1 0x2 ADD DUP2 MLOAD DUP2 LT PUSH2 0x30DC JUMPI INVALID JUMPDEST PUSH1 0x20 MUL PUSH1 0x20 ADD ADD MLOAD PUSH2 0x2D29 JUMP JUMPDEST SWAP1 POP PUSH2 0x3116 PUSH32 0x0 DUP9 DUP9 PUSH2 0x2D29 JUMP JUMPDEST PUSH20 0xFFFFFFFFFFFFFFFFFFFFFFFFFFFFFFFFFFFFFFFF AND PUSH4 0x22C0D9F DUP5 DUP5 DUP5 PUSH1 0x0 PUSH1 0x40 MLOAD SWAP1 DUP1 DUP3 MSTORE DUP1 PUSH1 0x1F ADD PUSH1 0x1F NOT AND PUSH1 0x20 ADD DUP3 ADD PUSH1 0x40 MSTORE DUP1 ISZERO PUSH2 0x3160 JUMPI PUSH1 0x20 DUP3 ADD DUP2 DUP1 CALLDATASIZE DUP4 CALLDATACOPY ADD SWAP1 POP JUMPDEST POP PUSH1 0x40 MLOAD DUP6 PUSH4 0xFFFFFFFF AND PUSH1 0xE0 SHL DUP2 MSTORE PUSH1 0x4 ADD DUP1 DUP6 DUP2 MSTORE PUSH1 0x20 ADD DUP5 DUP2 MSTORE PUSH1 0x20 ADD DUP4 PUSH20 0xFFFFFFFFFFFFFFFFFFFFFFFFFFFFFFFFFFFFFFFF AND DUP2 MSTORE PUSH1 0x20 ADD DUP1 PUSH1 0x20 ADD DUP3 DUP2 SUB DUP3 MSTORE DUP4 DUP2 DUP2 MLOAD DUP2 MSTORE PUSH1 0x20 ADD SWAP2 POP DUP1 MLOAD SWAP1 PUSH1 0x20 ADD SWAP1 DUP1 DUP4 DUP4 PUSH1 0x0 JUMPDEST DUP4 DUP2 LT ISZERO PUSH2 0x31D5 JUMPI DUP2 DUP2 ADD MLOAD DUP4 DUP3 ADD MSTORE PUSH1 0x20 ADD PUSH2 0x31BD JUMP JUMPDEST POP POP POP POP SWAP1 POP SWAP1 DUP2 ADD SWAP1 PUSH1 0x1F AND DUP1 ISZERO PUSH2 0x3202 JUMPI DUP1 DUP3 SUB DUP1 MLOAD PUSH1 0x1 DUP4 PUSH1 0x20 SUB PUSH2 0x100 EXP SUB NOT AND DUP2 MSTORE PUSH1 0x20 ADD SWAP2 POP JUMPDEST POP SWAP6 POP POP POP POP POP POP PUSH1 0x0 PUSH1 0x40 MLOAD DUP1 DUP4 SUB DUP2 PUSH1 0x0 DUP8 DUP1 EXTCODESIZE ISZERO DUP1 ISZERO PUSH2 0x3224 JUMPI PUSH1 0x0 DUP1 REVERT JUMPDEST POP GAS CALL ISZERO DUP1 ISZERO PUSH2 0x3238 JUMPI RETURNDATASIZE PUSH1 0x0 DUP1 RETURNDATACOPY RETURNDATASIZE PUSH1 0x0 REVERT JUMPDEST POP POP PUSH1 0x1 SWAP1 SWAP10 ADD SWAP9 POP PUSH2 0x2FE7 SWAP8 POP POP POP POP POP POP POP POP JUMP JUMPDEST POP POP POP POP JUMP JUMPDEST PUSH1 0x60 PUSH1 0x2 DUP3 MLOAD LT ISZERO PUSH2 0x32C8 JUMPI PUSH1 0x40 DUP1 MLOAD PUSH32 0x8C379A000000000000000000000000000000000000000000000000000000000 DUP2 MSTORE PUSH1 0x20 PUSH1 0x4 DUP3 ADD MSTORE PUSH1 0x1F PUSH1 0x24 DUP3 ADD MSTORE PUSH32 0x436166655377617056324C6962726172793A20494E56414C49445F5041544800 PUSH1 0x44 DUP3 ADD MSTORE SWAP1 MLOAD SWAP1 DUP2 SWAP1 SUB PUSH1 0x64 ADD SWAP1 REVERT JUMPDEST DUP2 MLOAD PUSH8 0xFFFFFFFFFFFFFFFF DUP2 GT DUP1 ISZERO PUSH2 0x32E0 JUMPI PUSH1 0x0 DUP1 REVERT JUMPDEST POP PUSH1 0x40 MLOAD SWAP1 DUP1 DUP3 MSTORE DUP1 PUSH1 0x20 MUL PUSH1 0x20 ADD DUP3 ADD PUSH1 0x40 MSTORE DUP1 ISZERO PUSH2 0x330A JUMPI DUP2 PUSH1 0x20 ADD PUSH1 0x20 DUP3 MUL DUP1 CALLDATASIZE DUP4 CALLDATACOPY ADD SWAP1 POP JUMPDEST POP SWAP1 POP DUP3 DUP2 PUSH1 0x1 DUP4 MLOAD SUB DUP2 MLOAD DUP2 LT PUSH2 0x331E JUMPI INVALID JUMPDEST PUSH1 0x20 SWAP1 DUP2 MUL SWAP2 SWAP1 SWAP2 ADD ADD MSTORE DUP2 MLOAD PUSH32 0xFFFFFFFFFFFFFFFFFFFFFFFFFFFFFFFFFFFFFFFFFFFFFFFFFFFFFFFFFFFFFFFF ADD JUMPDEST DUP1 ISZERO PUSH2 0x2D21 JUMPI PUSH1 0x0 DUP1 PUSH2 0x337E DUP8 DUP7 PUSH1 0x1 DUP7 SUB DUP2 MLOAD DUP2 LT PUSH2 0x336A JUMPI INVALID JUMPDEST PUSH1 0x20 MUL PUSH1 0x20 ADD ADD MLOAD DUP8 DUP7 DUP2 MLOAD DUP2 LT PUSH2 0x2C9A JUMPI INVALID JUMPDEST SWAP2 POP SWAP2 POP PUSH2 0x33C7 DUP5 DUP5 DUP2 MLOAD DUP2 LT PUSH2 0x3391 JUMPI INVALID JUMPDEST PUSH1 0x20 MUL PUSH1 0x20 ADD ADD MLOAD DUP4 DUP4 PUSH2 0x33C2 DUP12 DUP11 PUSH1 0x1 DUP11 SUB DUP2 MLOAD DUP2 LT PUSH2 0x33AE JUMPI INVALID JUMPDEST PUSH1 0x20 MUL PUSH1 0x20 ADD ADD MLOAD DUP12 DUP11 DUP2 MLOAD DUP2 LT PUSH2 0x2CEB JUMPI INVALID JUMPDEST PUSH2 0x3BEF JUMP JUMPDEST DUP5 PUSH1 0x1 DUP6 SUB DUP2 MLOAD DUP2 LT PUSH2 0x33D6 JUMPI INVALID JUMPDEST PUSH1 0x20 SWAP1 DUP2 MUL SWAP2 SWAP1 SWAP2 ADD ADD MSTORE POP POP PUSH32 0xFFFFFFFFFFFFFFFFFFFFFFFFFFFFFFFFFFFFFFFFFFFFFFFFFFFFFFFFFFFFFFFF ADD PUSH2 0x334E JUMP JUMPDEST PUSH1 0x0 DUP1 DUP6 GT PUSH2 0x3464 JUMPI PUSH1 0x40 MLOAD PUSH32 0x8C379A000000000000000000000000000000000000000000000000000000000 DUP2 MSTORE PUSH1 0x4 ADD DUP1 DUP1 PUSH1 0x20 ADD DUP3 DUP2 SUB DUP3 MSTORE PUSH1 0x2C DUP2 MSTORE PUSH1 0x20 ADD DUP1 PUSH2 0x404E PUSH1 0x2C SWAP2 CODECOPY PUSH1 0x40 ADD SWAP2 POP POP PUSH1 0x40 MLOAD DUP1 SWAP2 SUB SWAP1 REVERT JUMPDEST PUSH1 0x0 DUP5 GT DUP1 ISZERO PUSH2 0x3474 JUMPI POP PUSH1 0x0 DUP4 GT JUMPDEST PUSH2 0x34C9 JUMPI PUSH1 0x40 MLOAD PUSH32 0x8C379A000000000000000000000000000000000000000000000000000000000 DUP2 MSTORE PUSH1 0x4 ADD DUP1 DUP1 PUSH1 0x20 ADD DUP3 DUP2 SUB DUP3 MSTORE PUSH1 0x29 DUP2 MSTORE PUSH1 0x20 ADD DUP1 PUSH2 0x3E99 PUSH1 0x29 SWAP2 CODECOPY PUSH1 0x40 ADD SWAP2 POP POP PUSH1 0x40 MLOAD DUP1 SWAP2 SUB SWAP1 REVERT JUMPDEST PUSH1 0x0 PUSH2 0x34E1 PUSH2 0x34DA PUSH2 0x3E8 DUP6 PUSH2 0x3D05 JUMP JUMPDEST DUP8 SWAP1 PUSH2 0x3D77 JUMP JUMPDEST SWAP1 POP PUSH1 0x0 PUSH2 0x34EF DUP3 DUP7 PUSH2 0x3D77 JUMP JUMPDEST SWAP1 POP PUSH1 0x0 PUSH2 0x3509 DUP4 PUSH2 0x3503 DUP10 PUSH2 0x3E8 PUSH2 0x3D77 JUMP JUMPDEST SWAP1 PUSH2 0x3DFD JUMP JUMPDEST SWAP1 POP DUP1 DUP3 DUP2 PUSH2 0x3514 JUMPI INVALID JUMPDEST DIV SWAP9 SWAP8 POP POP POP POP POP POP POP POP JUMP JUMPDEST PUSH1 0x0 DUP1 DUP5 GT PUSH2 0x357B JUMPI PUSH1 0x40 MLOAD PUSH32 0x8C379A000000000000000000000000000000000000000000000000000000000 DUP2 MSTORE PUSH1 0x4 ADD DUP1 DUP1 PUSH1 0x20 ADD DUP3 DUP2 SUB DUP3 MSTORE PUSH1 0x26 DUP2 MSTORE PUSH1 0x20 ADD DUP1 PUSH2 0x3FCE PUSH1 0x26 SWAP2 CODECOPY PUSH1 0x40 ADD SWAP2 POP POP PUSH1 0x40 MLOAD DUP1 SWAP2 SUB SWAP1 REVERT JUMPDEST PUSH1 0x0 DUP4 GT DUP1 ISZERO PUSH2 0x358B JUMPI POP PUSH1 0x0 DUP3 GT JUMPDEST PUSH2 0x35E0 JUMPI PUSH1 0x40 MLOAD PUSH32 0x8C379A000000000000000000000000000000000000000000000000000000000 DUP2 MSTORE PUSH1 0x4 ADD DUP1 DUP1 PUSH1 0x20 ADD DUP3 DUP2 SUB DUP3 MSTORE PUSH1 0x29 DUP2 MSTORE PUSH1 0x20 ADD DUP1 PUSH2 0x3E99 PUSH1 0x29 SWAP2 CODECOPY PUSH1 0x40 ADD SWAP2 POP POP PUSH1 0x40 MLOAD DUP1 SWAP2 SUB SWAP1 REVERT JUMPDEST DUP3 PUSH2 0x35EB DUP6 DUP5 PUSH2 0x3D77 JUMP JUMPDEST DUP2 PUSH2 0x35F2 JUMPI INVALID JUMPDEST DIV SWAP5 SWAP4 POP POP POP POP JUMP JUMPDEST PUSH1 0x0 DUP1 DUP3 PUSH20 0xFFFFFFFFFFFFFFFFFFFFFFFFFFFFFFFFFFFFFFFF AND DUP5 PUSH20 0xFFFFFFFFFFFFFFFFFFFFFFFFFFFFFFFFFFFFFFFF AND EQ ISZERO PUSH2 0x3683 JUMPI PUSH1 0x40 MLOAD PUSH32 0x8C379A000000000000000000000000000000000000000000000000000000000 DUP2 MSTORE PUSH1 0x4 ADD DUP1 DUP1 PUSH1 0x20 ADD DUP3 DUP2 SUB DUP3 MSTORE PUSH1 0x26 DUP2 MSTORE PUSH1 0x20 ADD DUP1 PUSH2 0x3F7F PUSH1 0x26 SWAP2 CODECOPY PUSH1 0x40 ADD SWAP2 POP POP PUSH1 0x40 MLOAD DUP1 SWAP2 SUB SWAP1 REVERT JUMPDEST DUP3 PUSH20 0xFFFFFFFFFFFFFFFFFFFFFFFFFFFFFFFFFFFFFFFF AND DUP5 PUSH20 0xFFFFFFFFFFFFFFFFFFFFFFFFFFFFFFFFFFFFFFFF AND LT PUSH2 0x36BD JUMPI DUP3 DUP5 PUSH2 0x36C0 JUMP JUMPDEST DUP4 DUP4 JUMPDEST SWAP1 SWAP3 POP SWAP1 POP PUSH20 0xFFFFFFFFFFFFFFFFFFFFFFFFFFFFFFFFFFFFFFFF DUP3 AND PUSH2 0x3747 JUMPI PUSH1 0x40 DUP1 MLOAD PUSH32 0x8C379A000000000000000000000000000000000000000000000000000000000 DUP2 MSTORE PUSH1 0x20 PUSH1 0x4 DUP3 ADD MSTORE PUSH1 0x1F PUSH1 0x24 DUP3 ADD MSTORE PUSH32 0x436166655377617056324C6962726172793A205A45524F5F4144445245535300 PUSH1 0x44 DUP3 ADD MSTORE SWAP1 MLOAD SWAP1 DUP2 SWAP1 SUB PUSH1 0x64 ADD SWAP1 REVERT JUMPDEST SWAP3 POP SWAP3 SWAP1 POP JUMP JUMPDEST PUSH1 0x0 DUP1 PUSH1 0x0 PUSH20 0xFFFFFFFFFFFFFFFFFFFFFFFFFFFFFFFFFFFFFFFF AND PUSH32 0x0 PUSH20 0xFFFFFFFFFFFFFFFFFFFFFFFFFFFFFFFFFFFFFFFF AND PUSH4 0xE6A43905 DUP11 DUP11 PUSH1 0x40 MLOAD DUP4 PUSH4 0xFFFFFFFF AND PUSH1 0xE0 SHL DUP2 MSTORE PUSH1 0x4 ADD DUP1 DUP4 PUSH20 0xFFFFFFFFFFFFFFFFFFFFFFFFFFFFFFFFFFFFFFFF AND DUP2 MSTORE PUSH1 0x20 ADD DUP3 PUSH20 0xFFFFFFFFFFFFFFFFFFFFFFFFFFFFFFFFFFFFFFFF AND DUP2 MSTORE PUSH1 0x20 ADD SWAP3 POP POP POP PUSH1 0x20 PUSH1 0x40 MLOAD DUP1 DUP4 SUB DUP2 DUP7 DUP1 EXTCODESIZE ISZERO DUP1 ISZERO PUSH2 0x380E JUMPI PUSH1 0x0 DUP1 REVERT JUMPDEST POP GAS STATICCALL ISZERO DUP1 ISZERO PUSH2 0x3822 JUMPI RETURNDATASIZE PUSH1 0x0 DUP1 RETURNDATACOPY RETURNDATASIZE PUSH1 0x0 REVERT JUMPDEST POP POP POP POP PUSH1 0x40 MLOAD RETURNDATASIZE PUSH1 0x20 DUP2 LT ISZERO PUSH2 0x3838 JUMPI PUSH1 0x0 DUP1 REVERT JUMPDEST POP MLOAD PUSH20 0xFFFFFFFFFFFFFFFFFFFFFFFFFFFFFFFFFFFFFFFF AND EQ ISZERO PUSH2 0x392A JUMPI PUSH32 0x0 PUSH20 0xFFFFFFFFFFFFFFFFFFFFFFFFFFFFFFFFFFFFFFFF AND PUSH4 0xC9C65396 DUP10 DUP10 PUSH1 0x40 MLOAD DUP4 PUSH4 0xFFFFFFFF AND PUSH1 0xE0 SHL DUP2 MSTORE PUSH1 0x4 ADD DUP1 DUP4 PUSH20 0xFFFFFFFFFFFFFFFFFFFFFFFFFFFFFFFFFFFFFFFF AND DUP2 MSTORE PUSH1 0x20 ADD DUP3 PUSH20 0xFFFFFFFFFFFFFFFFFFFFFFFFFFFFFFFFFFFFFFFF AND DUP2 MSTORE PUSH1 0x20 ADD SWAP3 POP POP POP PUSH1 0x20 PUSH1 0x40 MLOAD DUP1 DUP4 SUB DUP2 PUSH1 0x0 DUP8 DUP1 EXTCODESIZE ISZERO DUP1 ISZERO PUSH2 0x38FD JUMPI PUSH1 0x0 DUP1 REVERT JUMPDEST POP GAS CALL ISZERO DUP1 ISZERO PUSH2 0x3911 JUMPI RETURNDATASIZE PUSH1 0x0 DUP1 RETURNDATACOPY RETURNDATASIZE PUSH1 0x0 REVERT JUMPDEST POP POP POP POP PUSH1 0x40 MLOAD RETURNDATASIZE PUSH1 0x20 DUP2 LT ISZERO PUSH2 0x3927 JUMPI PUSH1 0x0 DUP1 REVERT JUMPDEST POP POP JUMPDEST PUSH1 0x0 DUP1 PUSH2 0x3958 PUSH32 0x0 DUP12 DUP12 PUSH2 0x3A7B JUMP JUMPDEST SWAP2 POP SWAP2 POP DUP2 PUSH1 0x0 EQ DUP1 ISZERO PUSH2 0x396A JUMPI POP DUP1 ISZERO JUMPDEST ISZERO PUSH2 0x397A JUMPI DUP8 SWAP4 POP DUP7 SWAP3 POP PUSH2 0x3A6E JUMP JUMPDEST PUSH1 0x0 PUSH2 0x3987 DUP10 DUP5 DUP5 PUSH2 0x3521 JUMP JUMPDEST SWAP1 POP DUP8 DUP2 GT PUSH2 0x39F4 JUMPI DUP6 DUP2 LT ISZERO PUSH2 0x39E9 JUMPI PUSH1 0x40 MLOAD PUSH32 0x8C379A000000000000000000000000000000000000000000000000000000000 DUP2 MSTORE PUSH1 0x4 ADD DUP1 DUP1 PUSH1 0x20 ADD DUP3 DUP2 SUB DUP3 MSTORE PUSH1 0x29 DUP2 MSTORE PUSH1 0x20 ADD DUP1 PUSH2 0x3E70 PUSH1 0x29 SWAP2 CODECOPY PUSH1 0x40 ADD SWAP2 POP POP PUSH1 0x40 MLOAD DUP1 SWAP2 SUB SWAP1 REVERT JUMPDEST DUP9 SWAP5 POP SWAP3 POP DUP3 PUSH2 0x3A6C JUMP JUMPDEST PUSH1 0x0 PUSH2 0x3A01 DUP10 DUP5 DUP7 PUSH2 0x3521 JUMP JUMPDEST SWAP1 POP DUP10 DUP2 GT ISZERO PUSH2 0x3A0D JUMPI INVALID JUMPDEST DUP8 DUP2 LT ISZERO PUSH2 0x3A66 JUMPI PUSH1 0x40 MLOAD PUSH32 0x8C379A000000000000000000000000000000000000000000000000000000000 DUP2 MSTORE PUSH1 0x4 ADD DUP1 DUP1 PUSH1 0x20 ADD DUP3 DUP2 SUB DUP3 MSTORE PUSH1 0x29 DUP2 MSTORE PUSH1 0x20 ADD DUP1 PUSH2 0x3FA5 PUSH1 0x29 SWAP2 CODECOPY PUSH1 0x40 ADD SWAP2 POP POP PUSH1 0x40 MLOAD DUP1 SWAP2 SUB SWAP1 REVERT JUMPDEST SWAP5 POP DUP8 SWAP4 POP JUMPDEST POP JUMPDEST POP POP SWAP7 POP SWAP7 SWAP5 POP POP POP POP POP JUMP JUMPDEST PUSH1 0x0 DUP1 PUSH1 0x0 PUSH2 0x3A8A DUP6 DUP6 PUSH2 0x35FB JUMP JUMPDEST POP SWAP1 POP PUSH1 0x0 DUP1 PUSH2 0x3A9B DUP9 DUP9 DUP9 PUSH2 0x2D29 JUMP JUMPDEST PUSH20 0xFFFFFFFFFFFFFFFFFFFFFFFFFFFFFFFFFFFFFFFF AND PUSH4 0x902F1AC PUSH1 0x40 MLOAD DUP2 PUSH4 0xFFFFFFFF AND PUSH1 0xE0 SHL DUP2 MSTORE PUSH1 0x4 ADD PUSH1 0x60 PUSH1 0x40 MLOAD DUP1 DUP4 SUB DUP2 DUP7 DUP1 EXTCODESIZE ISZERO DUP1 ISZERO PUSH2 0x3AE0 JUMPI PUSH1 0x0 DUP1 REVERT JUMPDEST POP GAS STATICCALL ISZERO DUP1 ISZERO PUSH2 0x3AF4 JUMPI RETURNDATASIZE PUSH1 0x0 DUP1 RETURNDATACOPY RETURNDATASIZE PUSH1 0x0 REVERT JUMPDEST POP POP POP POP PUSH1 0x40 MLOAD RETURNDATASIZE PUSH1 0x60 DUP2 LT ISZERO PUSH2 0x3B0A JUMPI PUSH1 0x0 DUP1 REVERT JUMPDEST POP DUP1 MLOAD PUSH1 0x20 SWAP1 SWAP2 ADD MLOAD PUSH14 0xFFFFFFFFFFFFFFFFFFFFFFFFFFFF SWAP2 DUP3 AND SWAP4 POP AND SWAP1 POP PUSH20 0xFFFFFFFFFFFFFFFFFFFFFFFFFFFFFFFFFFFFFFFF DUP8 DUP2 AND SWAP1 DUP5 AND EQ PUSH2 0x3B51 JUMPI DUP1 DUP3 PUSH2 0x3B54 JUMP JUMPDEST DUP2 DUP2 JUMPDEST SWAP1 SWAP10 SWAP1 SWAP9 POP SWAP7 POP POP POP POP POP POP POP JUMP JUMPDEST PUSH1 0x0 PUSH2 0x3B70 DUP5 DUP5 DUP5 PUSH2 0x2D29 JUMP JUMPDEST PUSH20 0xFFFFFFFFFFFFFFFFFFFFFFFFFFFFFFFFFFFFFFFF AND PUSH4 0x54CF2AEB PUSH1 0x40 MLOAD DUP2 PUSH4 0xFFFFFFFF AND PUSH1 0xE0 SHL DUP2 MSTORE PUSH1 0x4 ADD PUSH1 0x20 PUSH1 0x40 MLOAD DUP1 DUP4 SUB DUP2 DUP7 DUP1 EXTCODESIZE ISZERO DUP1 ISZERO PUSH2 0x3BB5 JUMPI PUSH1 0x0 DUP1 REVERT JUMPDEST POP GAS STATICCALL ISZERO DUP1 ISZERO PUSH2 0x3BC9 JUMPI RETURNDATASIZE PUSH1 0x0 DUP1 RETURNDATACOPY RETURNDATASIZE PUSH1 0x0 REVERT JUMPDEST POP POP POP POP PUSH1 0x40 MLOAD RETURNDATASIZE PUSH1 0x20 DUP2 LT ISZERO PUSH2 0x3BDF JUMPI PUSH1 0x0 DUP1 REVERT JUMPDEST POP MLOAD PUSH4 0xFFFFFFFF AND SWAP5 SWAP4 POP POP POP POP JUMP JUMPDEST PUSH1 0x0 DUP1 DUP6 GT PUSH2 0x3C49 JUMPI PUSH1 0x40 MLOAD PUSH32 0x8C379A000000000000000000000000000000000000000000000000000000000 DUP2 MSTORE PUSH1 0x4 ADD DUP1 DUP1 PUSH1 0x20 ADD DUP3 DUP2 SUB DUP3 MSTORE PUSH1 0x2D DUP2 MSTORE PUSH1 0x20 ADD DUP1 PUSH2 0x3FF4 PUSH1 0x2D SWAP2 CODECOPY PUSH1 0x40 ADD SWAP2 POP POP PUSH1 0x40 MLOAD DUP1 SWAP2 SUB SWAP1 REVERT JUMPDEST PUSH1 0x0 DUP5 GT DUP1 ISZERO PUSH2 0x3C59 JUMPI POP PUSH1 0x0 DUP4 GT JUMPDEST PUSH2 0x3CAE JUMPI PUSH1 0x40 MLOAD PUSH32 0x8C379A000000000000000000000000000000000000000000000000000000000 DUP2 MSTORE PUSH1 0x4 ADD DUP1 DUP1 PUSH1 0x20 ADD DUP3 DUP2 SUB DUP3 MSTORE PUSH1 0x29 DUP2 MSTORE PUSH1 0x20 ADD DUP1 PUSH2 0x3E99 PUSH1 0x29 SWAP2 CODECOPY PUSH1 0x40 ADD SWAP2 POP POP PUSH1 0x40 MLOAD DUP1 SWAP2 SUB SWAP1 REVERT JUMPDEST PUSH1 0x0 PUSH2 0x3CC6 PUSH2 0x3E8 PUSH2 0x3CC0 DUP8 DUP10 PUSH2 0x3D77 JUMP JUMPDEST SWAP1 PUSH2 0x3D77 JUMP JUMPDEST SWAP1 POP PUSH1 0x0 PUSH2 0x3CE3 PUSH2 0x3CD9 PUSH2 0x3E8 DUP7 PUSH2 0x3D05 JUMP JUMPDEST PUSH2 0x3CC0 DUP8 DUP11 PUSH2 0x3D05 JUMP JUMPDEST SWAP1 POP PUSH2 0x3CFA PUSH1 0x1 DUP3 DUP5 DUP2 PUSH2 0x3CF3 JUMPI INVALID JUMPDEST DIV SWAP1 PUSH2 0x3DFD JUMP JUMPDEST SWAP8 SWAP7 POP POP POP POP POP POP POP JUMP JUMPDEST DUP1 DUP3 SUB DUP3 DUP2 GT ISZERO PUSH2 0x104B JUMPI PUSH1 0x40 DUP1 MLOAD PUSH32 0x8C379A000000000000000000000000000000000000000000000000000000000 DUP2 MSTORE PUSH1 0x20 PUSH1 0x4 DUP3 ADD MSTORE PUSH1 0x15 PUSH1 0x24 DUP3 ADD MSTORE PUSH32 0x64732D6D6174682D7375622D756E646572666C6F770000000000000000000000 PUSH1 0x44 DUP3 ADD MSTORE SWAP1 MLOAD SWAP1 DUP2 SWAP1 SUB PUSH1 0x64 ADD SWAP1 REVERT JUMPDEST PUSH1 0x0 DUP2 ISZERO DUP1 PUSH2 0x3D92 JUMPI POP POP DUP1 DUP3 MUL DUP3 DUP3 DUP3 DUP2 PUSH2 0x3D8F JUMPI INVALID JUMPDEST DIV EQ JUMPDEST PUSH2 0x104B JUMPI PUSH1 0x40 DUP1 MLOAD PUSH32 0x8C379A000000000000000000000000000000000000000000000000000000000 DUP2 MSTORE PUSH1 0x20 PUSH1 0x4 DUP3 ADD MSTORE PUSH1 0x14 PUSH1 0x24 DUP3 ADD MSTORE PUSH32 0x64732D6D6174682D6D756C2D6F766572666C6F77000000000000000000000000 PUSH1 0x44 DUP3 ADD MSTORE SWAP1 MLOAD SWAP1 DUP2 SWAP1 SUB PUSH1 0x64 ADD SWAP1 REVERT JUMPDEST DUP1 DUP3 ADD DUP3 DUP2 LT ISZERO PUSH2 0x104B JUMPI PUSH1 0x40 DUP1 MLOAD PUSH32 0x8C379A000000000000000000000000000000000000000000000000000000000 DUP2 MSTORE PUSH1 0x20 PUSH1 0x4 DUP3 ADD MSTORE PUSH1 0x14 PUSH1 0x24 DUP3 ADD MSTORE PUSH32 0x64732D6D6174682D6164642D6F766572666C6F77000000000000000000000000 PUSH1 0x44 DUP3 ADD MSTORE SWAP1 MLOAD SWAP1 DUP2 SWAP1 SUB PUSH1 0x64 ADD SWAP1 REVERT INVALID NUMBER PUSH2 0x6665 MSTORE8 PUSH24 0x617056325632526F757465723A20494E5355464649434945 0x4E SLOAD 0x5F TIMESTAMP 0x5F COINBASE 0x4D 0x4F SSTORE 0x4E SLOAD NUMBER PUSH2 0x6665 MSTORE8 PUSH24 0x617056324C6962726172793A20494E53554646494349454E SLOAD 0x5F 0x4C 0x49 MLOAD SSTORE 0x49 DIFFICULTY 0x49 SLOAD MSIZE NUMBER PUSH2 0x6665 MSTORE8 PUSH24 0x617056325632526F757465723A204558434553534956455F 0x49 0x4E POP SSTORE SLOAD 0x5F COINBASE 0x4D 0x4F SSTORE 0x4E SLOAD NUMBER PUSH2 0x6665 MSTORE8 PUSH24 0x617056325632526F757465723A20494E5355464649434945 0x4E SLOAD 0x5F 0x4F SSTORE SLOAD POP SSTORE SLOAD 0x5F COINBASE 0x4D 0x4F SSTORE 0x4E SLOAD SLOAD PUSH19 0x616E7366657248656C7065723A3A7472616E73 PUSH7 0x657246726F6D3A KECCAK256 PUSH21 0x72616E7366657246726F6D206661696C6564547261 PUSH15 0x7366657248656C7065723A3A736166 PUSH6 0x5472616E7366 PUSH6 0x724554483A20 GASLIMIT SLOAD 0x48 KECCAK256 PUSH21 0x72616E73666572206661696C656443616665537761 PUSH17 0x56324C6962726172793A204944454E5449 NUMBER COINBASE 0x4C 0x5F COINBASE DIFFICULTY DIFFICULTY MSTORE GASLIMIT MSTORE8 MSTORE8 GASLIMIT MSTORE8 NUMBER PUSH2 0x6665 MSTORE8 PUSH24 0x617056325632526F757465723A20494E5355464649434945 0x4E SLOAD 0x5F COINBASE 0x5F COINBASE 0x4D 0x4F SSTORE 0x4E SLOAD NUMBER PUSH2 0x6665 MSTORE8 PUSH24 0x617056324C6962726172793A20494E53554646494349454E SLOAD 0x5F COINBASE 0x4D 0x4F SSTORE 0x4E SLOAD NUMBER PUSH2 0x6665 MSTORE8 PUSH24 0x617056324C6962726172793A20494E53554646494349454E SLOAD 0x5F 0x4F SSTORE SLOAD POP SSTORE SLOAD 0x5F COINBASE 0x4D 0x4F SSTORE 0x4E SLOAD SLOAD PUSH19 0x616E7366657248656C7065723A3A7361666554 PUSH19 0x616E736665723A207472616E73666572206661 PUSH10 0x6C656443616665537761 PUSH17 0x56324C6962726172793A20494E53554646 0x49 NUMBER 0x49 GASLIMIT 0x4E SLOAD 0x5F 0x49 0x4E POP SSTORE SLOAD 0x5F COINBASE 0x4D 0x4F SSTORE 0x4E SLOAD LOG2 PUSH5 0x6970667358 0x22 SLT KECCAK256 0xD6 0x49 SWAP16 DUP14 EXP PUSH14 0x5B5DF733ABD1E2314A67F044A59C BLOCKHASH DUP3 PUSH19 0x9F75358501B11B0DF164736F6C634300060C00 CALLER "
    }
  },
  "interface": [
    {
      "inputs": [
        {
          "internalType": "address",
          "name": "_factory",
          "type": "address"
        },
        {
          "internalType": "address",
          "name": "_WETH",
          "type": "address"
        }
      ],
      "stateMutability": "nonpayable",
      "type": "constructor"
    },
    {
      "inputs": [],
      "name": "WETH",
      "outputs": [
        {
          "internalType": "address",
          "name": "",
          "type": "address"
        }
      ],
      "stateMutability": "view",
      "type": "function"
    },
    {
      "inputs": [
        {
          "internalType": "address",
          "name": "tokenA",
          "type": "address"
        },
        {
          "internalType": "address",
          "name": "tokenB",
          "type": "address"
        },
        {
          "internalType": "uint256",
          "name": "amountADesired",
          "type": "uint256"
        },
        {
          "internalType": "uint256",
          "name": "amountBDesired",
          "type": "uint256"
        },
        {
          "internalType": "uint256",
          "name": "amountAMin",
          "type": "uint256"
        },
        {
          "internalType": "uint256",
          "name": "amountBMin",
          "type": "uint256"
        },
        {
          "internalType": "address",
          "name": "to",
          "type": "address"
        },
        {
          "internalType": "uint256",
          "name": "deadline",
          "type": "uint256"
        }
      ],
      "name": "addLiquidity",
      "outputs": [
        {
          "internalType": "uint256",
          "name": "amountA",
          "type": "uint256"
        },
        {
          "internalType": "uint256",
          "name": "amountB",
          "type": "uint256"
        },
        {
          "internalType": "uint256",
          "name": "liquidity",
          "type": "uint256"
        }
      ],
      "stateMutability": "nonpayable",
      "type": "function"
    },
    {
      "inputs": [
        {
          "internalType": "address",
          "name": "token",
          "type": "address"
        },
        {
          "internalType": "uint256",
          "name": "amountTokenDesired",
          "type": "uint256"
        },
        {
          "internalType": "uint256",
          "name": "amountTokenMin",
          "type": "uint256"
        },
        {
          "internalType": "uint256",
          "name": "amountETHMin",
          "type": "uint256"
        },
        {
          "internalType": "address",
          "name": "to",
          "type": "address"
        },
        {
          "internalType": "uint256",
          "name": "deadline",
          "type": "uint256"
        }
      ],
      "name": "addLiquidityETH",
      "outputs": [
        {
          "internalType": "uint256",
          "name": "amountToken",
          "type": "uint256"
        },
        {
          "internalType": "uint256",
          "name": "amountETH",
          "type": "uint256"
        },
        {
          "internalType": "uint256",
          "name": "liquidity",
          "type": "uint256"
        }
      ],
      "stateMutability": "payable",
      "type": "function"
    },
    {
      "inputs": [],
      "name": "factory",
      "outputs": [
        {
          "internalType": "address",
          "name": "",
          "type": "address"
        }
      ],
      "stateMutability": "view",
      "type": "function"
    },
    {
      "inputs": [
        {
          "internalType": "uint256",
          "name": "amountOut",
          "type": "uint256"
        },
        {
          "internalType": "uint256",
          "name": "reserveIn",
          "type": "uint256"
        },
        {
          "internalType": "uint256",
          "name": "reserveOut",
          "type": "uint256"
        },
        {
          "internalType": "uint256",
          "name": "swapFee",
          "type": "uint256"
        }
      ],
      "name": "getAmountIn",
      "outputs": [
        {
          "internalType": "uint256",
          "name": "amountIn",
          "type": "uint256"
        }
      ],
      "stateMutability": "pure",
      "type": "function"
    },
    {
      "inputs": [
        {
          "internalType": "uint256",
          "name": "amountIn",
          "type": "uint256"
        },
        {
          "internalType": "uint256",
          "name": "reserveIn",
          "type": "uint256"
        },
        {
          "internalType": "uint256",
          "name": "reserveOut",
          "type": "uint256"
        },
        {
          "internalType": "uint256",
          "name": "swapFee",
          "type": "uint256"
        }
      ],
      "name": "getAmountOut",
      "outputs": [
        {
          "internalType": "uint256",
          "name": "amountOut",
          "type": "uint256"
        }
      ],
      "stateMutability": "pure",
      "type": "function"
    },
    {
      "inputs": [
        {
          "internalType": "uint256",
          "name": "amountOut",
          "type": "uint256"
        },
        {
          "internalType": "address[]",
          "name": "path",
          "type": "address[]"
        }
      ],
      "name": "getAmountsIn",
      "outputs": [
        {
          "internalType": "uint256[]",
          "name": "amounts",
          "type": "uint256[]"
        }
      ],
      "stateMutability": "view",
      "type": "function"
    },
    {
      "inputs": [
        {
          "internalType": "uint256",
          "name": "amountIn",
          "type": "uint256"
        },
        {
          "internalType": "address[]",
          "name": "path",
          "type": "address[]"
        }
      ],
      "name": "getAmountsOut",
      "outputs": [
        {
          "internalType": "uint256[]",
          "name": "amounts",
          "type": "uint256[]"
        }
      ],
      "stateMutability": "view",
      "type": "function"
    },
    {
      "inputs": [
        {
          "internalType": "uint256",
          "name": "amountA",
          "type": "uint256"
        },
        {
          "internalType": "uint256",
          "name": "reserveA",
          "type": "uint256"
        },
        {
          "internalType": "uint256",
          "name": "reserveB",
          "type": "uint256"
        }
      ],
      "name": "quote",
      "outputs": [
        {
          "internalType": "uint256",
          "name": "amountB",
          "type": "uint256"
        }
      ],
      "stateMutability": "pure",
      "type": "function"
    },
    {
      "inputs": [
        {
          "internalType": "address",
          "name": "tokenA",
          "type": "address"
        },
        {
          "internalType": "address",
          "name": "tokenB",
          "type": "address"
        },
        {
          "internalType": "uint256",
          "name": "liquidity",
          "type": "uint256"
        },
        {
          "internalType": "uint256",
          "name": "amountAMin",
          "type": "uint256"
        },
        {
          "internalType": "uint256",
          "name": "amountBMin",
          "type": "uint256"
        },
        {
          "internalType": "address",
          "name": "to",
          "type": "address"
        },
        {
          "internalType": "uint256",
          "name": "deadline",
          "type": "uint256"
        }
      ],
      "name": "removeLiquidity",
      "outputs": [
        {
          "internalType": "uint256",
          "name": "amountA",
          "type": "uint256"
        },
        {
          "internalType": "uint256",
          "name": "amountB",
          "type": "uint256"
        }
      ],
      "stateMutability": "nonpayable",
      "type": "function"
    },
    {
      "inputs": [
        {
          "internalType": "address",
          "name": "token",
          "type": "address"
        },
        {
          "internalType": "uint256",
          "name": "liquidity",
          "type": "uint256"
        },
        {
          "internalType": "uint256",
          "name": "amountTokenMin",
          "type": "uint256"
        },
        {
          "internalType": "uint256",
          "name": "amountETHMin",
          "type": "uint256"
        },
        {
          "internalType": "address",
          "name": "to",
          "type": "address"
        },
        {
          "internalType": "uint256",
          "name": "deadline",
          "type": "uint256"
        }
      ],
      "name": "removeLiquidityETH",
      "outputs": [
        {
          "internalType": "uint256",
          "name": "amountToken",
          "type": "uint256"
        },
        {
          "internalType": "uint256",
          "name": "amountETH",
          "type": "uint256"
        }
      ],
      "stateMutability": "nonpayable",
      "type": "function"
    },
    {
      "inputs": [
        {
          "internalType": "address",
          "name": "token",
          "type": "address"
        },
        {
          "internalType": "uint256",
          "name": "liquidity",
          "type": "uint256"
        },
        {
          "internalType": "uint256",
          "name": "amountTokenMin",
          "type": "uint256"
        },
        {
          "internalType": "uint256",
          "name": "amountETHMin",
          "type": "uint256"
        },
        {
          "internalType": "address",
          "name": "to",
          "type": "address"
        },
        {
          "internalType": "uint256",
          "name": "deadline",
          "type": "uint256"
        },
        {
          "internalType": "bool",
          "name": "approveMax",
          "type": "bool"
        },
        {
          "internalType": "uint8",
          "name": "v",
          "type": "uint8"
        },
        {
          "internalType": "bytes32",
          "name": "r",
          "type": "bytes32"
        },
        {
          "internalType": "bytes32",
          "name": "s",
          "type": "bytes32"
        }
      ],
      "name": "removeLiquidityETHWithPermit",
      "outputs": [
        {
          "internalType": "uint256",
          "name": "amountToken",
          "type": "uint256"
        },
        {
          "internalType": "uint256",
          "name": "amountETH",
          "type": "uint256"
        }
      ],
      "stateMutability": "nonpayable",
      "type": "function"
    },
    {
      "inputs": [
        {
          "internalType": "address",
          "name": "tokenA",
          "type": "address"
        },
        {
          "internalType": "address",
          "name": "tokenB",
          "type": "address"
        },
        {
          "internalType": "uint256",
          "name": "liquidity",
          "type": "uint256"
        },
        {
          "internalType": "uint256",
          "name": "amountAMin",
          "type": "uint256"
        },
        {
          "internalType": "uint256",
          "name": "amountBMin",
          "type": "uint256"
        },
        {
          "internalType": "address",
          "name": "to",
          "type": "address"
        },
        {
          "internalType": "uint256",
          "name": "deadline",
          "type": "uint256"
        },
        {
          "internalType": "bool",
          "name": "approveMax",
          "type": "bool"
        },
        {
          "internalType": "uint8",
          "name": "v",
          "type": "uint8"
        },
        {
          "internalType": "bytes32",
          "name": "r",
          "type": "bytes32"
        },
        {
          "internalType": "bytes32",
          "name": "s",
          "type": "bytes32"
        }
      ],
      "name": "removeLiquidityWithPermit",
      "outputs": [
        {
          "internalType": "uint256",
          "name": "amountA",
          "type": "uint256"
        },
        {
          "internalType": "uint256",
          "name": "amountB",
          "type": "uint256"
        }
      ],
      "stateMutability": "nonpayable",
      "type": "function"
    },
    {
      "inputs": [
        {
          "internalType": "uint256",
          "name": "amountOut",
          "type": "uint256"
        },
        {
          "internalType": "address[]",
          "name": "path",
          "type": "address[]"
        },
        {
          "internalType": "address",
          "name": "to",
          "type": "address"
        },
        {
          "internalType": "uint256",
          "name": "deadline",
          "type": "uint256"
        }
      ],
      "name": "swapETHForExactTokens",
      "outputs": [
        {
          "internalType": "uint256[]",
          "name": "amounts",
          "type": "uint256[]"
        }
      ],
      "stateMutability": "payable",
      "type": "function"
    },
    {
      "inputs": [
        {
          "internalType": "uint256",
          "name": "amountOutMin",
          "type": "uint256"
        },
        {
          "internalType": "address[]",
          "name": "path",
          "type": "address[]"
        },
        {
          "internalType": "address",
          "name": "to",
          "type": "address"
        },
        {
          "internalType": "uint256",
          "name": "deadline",
          "type": "uint256"
        }
      ],
      "name": "swapExactETHForTokens",
      "outputs": [
        {
          "internalType": "uint256[]",
          "name": "amounts",
          "type": "uint256[]"
        }
      ],
      "stateMutability": "payable",
      "type": "function"
    },
    {
      "inputs": [
        {
          "internalType": "uint256",
          "name": "amountIn",
          "type": "uint256"
        },
        {
          "internalType": "uint256",
          "name": "amountOutMin",
          "type": "uint256"
        },
        {
          "internalType": "address[]",
          "name": "path",
          "type": "address[]"
        },
        {
          "internalType": "address",
          "name": "to",
          "type": "address"
        },
        {
          "internalType": "uint256",
          "name": "deadline",
          "type": "uint256"
        }
      ],
      "name": "swapExactTokensForETH",
      "outputs": [
        {
          "internalType": "uint256[]",
          "name": "amounts",
          "type": "uint256[]"
        }
      ],
      "stateMutability": "nonpayable",
      "type": "function"
    },
    {
      "inputs": [
        {
          "internalType": "uint256",
          "name": "amountIn",
          "type": "uint256"
        },
        {
          "internalType": "uint256",
          "name": "amountOutMin",
          "type": "uint256"
        },
        {
          "internalType": "address[]",
          "name": "path",
          "type": "address[]"
        },
        {
          "internalType": "address",
          "name": "to",
          "type": "address"
        },
        {
          "internalType": "uint256",
          "name": "deadline",
          "type": "uint256"
        }
      ],
      "name": "swapExactTokensForTokens",
      "outputs": [
        {
          "internalType": "uint256[]",
          "name": "amounts",
          "type": "uint256[]"
        }
      ],
      "stateMutability": "nonpayable",
      "type": "function"
    },
    {
      "inputs": [
        {
          "internalType": "uint256",
          "name": "amountOut",
          "type": "uint256"
        },
        {
          "internalType": "uint256",
          "name": "amountInMax",
          "type": "uint256"
        },
        {
          "internalType": "address[]",
          "name": "path",
          "type": "address[]"
        },
        {
          "internalType": "address",
          "name": "to",
          "type": "address"
        },
        {
          "internalType": "uint256",
          "name": "deadline",
          "type": "uint256"
        }
      ],
      "name": "swapTokensForExactETH",
      "outputs": [
        {
          "internalType": "uint256[]",
          "name": "amounts",
          "type": "uint256[]"
        }
      ],
      "stateMutability": "nonpayable",
      "type": "function"
    },
    {
      "inputs": [
        {
          "internalType": "uint256",
          "name": "amountOut",
          "type": "uint256"
        },
        {
          "internalType": "uint256",
          "name": "amountInMax",
          "type": "uint256"
        },
        {
          "internalType": "address[]",
          "name": "path",
          "type": "address[]"
        },
        {
          "internalType": "address",
          "name": "to",
          "type": "address"
        },
        {
          "internalType": "uint256",
          "name": "deadline",
          "type": "uint256"
        }
      ],
      "name": "swapTokensForExactTokens",
      "outputs": [
        {
          "internalType": "uint256[]",
          "name": "amounts",
          "type": "uint256[]"
        }
      ],
      "stateMutability": "nonpayable",
      "type": "function"
    },
    {
      "stateMutability": "payable",
      "type": "receive"
    }
  ]
}